{
  "_format": "hh-sol-artifact-1",
  "contractName": "RewardToken",
  "sourceName": "contracts/RewardToken.sol",
  "abi": [
    {
      "inputs": [
        {
          "internalType": "string",
          "name": "name",
          "type": "string"
        },
        {
          "internalType": "string",
          "name": "symbol",
          "type": "string"
        },
        {
          "internalType": "uint256",
          "name": "maxSupply",
          "type": "uint256"
        },
        {
          "internalType": "uint256",
          "name": "initialSupply",
          "type": "uint256"
        }
      ],
      "stateMutability": "nonpayable",
      "type": "constructor"
    },
    {
      "anonymous": false,
      "inputs": [
        {
          "indexed": true,
          "internalType": "address",
          "name": "owner",
          "type": "address"
        },
        {
          "indexed": true,
          "internalType": "address",
          "name": "spender",
          "type": "address"
        },
        {
          "indexed": false,
          "internalType": "uint256",
          "name": "value",
          "type": "uint256"
        }
      ],
      "name": "Approval",
      "type": "event"
    },
    {
      "anonymous": false,
      "inputs": [
        {
          "indexed": true,
          "internalType": "address",
          "name": "minter",
          "type": "address"
        }
      ],
      "name": "MinterAdded",
      "type": "event"
    },
    {
      "anonymous": false,
      "inputs": [
        {
          "indexed": true,
          "internalType": "address",
          "name": "minter",
          "type": "address"
        }
      ],
      "name": "MinterRemoved",
      "type": "event"
    },
    {
      "anonymous": false,
      "inputs": [
        {
          "indexed": true,
          "internalType": "address",
          "name": "previousOwner",
          "type": "address"
        },
        {
          "indexed": true,
          "internalType": "address",
          "name": "newOwner",
          "type": "address"
        }
      ],
      "name": "OwnershipTransferred",
      "type": "event"
    },
    {
      "anonymous": false,
      "inputs": [
        {
          "indexed": true,
          "internalType": "address",
          "name": "from",
          "type": "address"
        },
        {
          "indexed": true,
          "internalType": "address",
          "name": "to",
          "type": "address"
        },
        {
          "indexed": false,
          "internalType": "uint256",
          "name": "value",
          "type": "uint256"
        }
      ],
      "name": "Transfer",
      "type": "event"
    },
    {
      "inputs": [],
      "name": "MAX_SUPPLY",
      "outputs": [
        {
          "internalType": "uint256",
          "name": "",
          "type": "uint256"
        }
      ],
      "stateMutability": "view",
      "type": "function"
    },
    {
      "inputs": [
        {
          "internalType": "address",
          "name": "minter",
          "type": "address"
        }
      ],
      "name": "addMinter",
      "outputs": [],
      "stateMutability": "nonpayable",
      "type": "function"
    },
    {
      "inputs": [
        {
          "internalType": "address",
          "name": "owner",
          "type": "address"
        },
        {
          "internalType": "address",
          "name": "spender",
          "type": "address"
        }
      ],
      "name": "allowance",
      "outputs": [
        {
          "internalType": "uint256",
          "name": "",
          "type": "uint256"
        }
      ],
      "stateMutability": "view",
      "type": "function"
    },
    {
      "inputs": [
        {
          "internalType": "address",
          "name": "spender",
          "type": "address"
        },
        {
          "internalType": "uint256",
          "name": "amount",
          "type": "uint256"
        }
      ],
      "name": "approve",
      "outputs": [
        {
          "internalType": "bool",
          "name": "",
          "type": "bool"
        }
      ],
      "stateMutability": "nonpayable",
      "type": "function"
    },
    {
      "inputs": [
        {
          "internalType": "address",
          "name": "account",
          "type": "address"
        }
      ],
      "name": "balanceOf",
      "outputs": [
        {
          "internalType": "uint256",
          "name": "",
          "type": "uint256"
        }
      ],
      "stateMutability": "view",
      "type": "function"
    },
    {
      "inputs": [
        {
          "internalType": "uint256",
          "name": "amount",
          "type": "uint256"
        }
      ],
      "name": "burn",
      "outputs": [],
      "stateMutability": "nonpayable",
      "type": "function"
    },
    {
      "inputs": [
        {
          "internalType": "address",
          "name": "account",
          "type": "address"
        },
        {
          "internalType": "uint256",
          "name": "amount",
          "type": "uint256"
        }
      ],
      "name": "burnFrom",
      "outputs": [],
      "stateMutability": "nonpayable",
      "type": "function"
    },
    {
      "inputs": [
        {
          "internalType": "address",
          "name": "user",
          "type": "address"
        },
        {
          "internalType": "uint256",
          "name": "participationScore",
          "type": "uint256"
        }
      ],
      "name": "calculateReward",
      "outputs": [
        {
          "internalType": "uint256",
          "name": "",
          "type": "uint256"
        }
      ],
      "stateMutability": "pure",
      "type": "function"
    },
    {
      "inputs": [],
      "name": "decimals",
      "outputs": [
        {
          "internalType": "uint8",
          "name": "",
          "type": "uint8"
        }
      ],
      "stateMutability": "view",
      "type": "function"
    },
    {
      "inputs": [
        {
          "internalType": "address",
          "name": "spender",
          "type": "address"
        },
        {
          "internalType": "uint256",
          "name": "subtractedValue",
          "type": "uint256"
        }
      ],
      "name": "decreaseAllowance",
      "outputs": [
        {
          "internalType": "bool",
          "name": "",
          "type": "bool"
        }
      ],
      "stateMutability": "nonpayable",
      "type": "function"
    },
    {
      "inputs": [
        {
          "internalType": "address",
          "name": "spender",
          "type": "address"
        },
        {
          "internalType": "uint256",
          "name": "addedValue",
          "type": "uint256"
        }
      ],
      "name": "increaseAllowance",
      "outputs": [
        {
          "internalType": "bool",
          "name": "",
          "type": "bool"
        }
      ],
      "stateMutability": "nonpayable",
      "type": "function"
    },
    {
      "inputs": [
        {
          "internalType": "address",
          "name": "to",
          "type": "address"
        },
        {
          "internalType": "uint256",
          "name": "amount",
          "type": "uint256"
        }
      ],
      "name": "mint",
      "outputs": [],
      "stateMutability": "nonpayable",
      "type": "function"
    },
    {
      "inputs": [
        {
          "internalType": "address",
          "name": "",
          "type": "address"
        }
      ],
      "name": "minters",
      "outputs": [
        {
          "internalType": "bool",
          "name": "",
          "type": "bool"
        }
      ],
      "stateMutability": "view",
      "type": "function"
    },
    {
      "inputs": [],
      "name": "name",
      "outputs": [
        {
          "internalType": "string",
          "name": "",
          "type": "string"
        }
      ],
      "stateMutability": "view",
      "type": "function"
    },
    {
      "inputs": [],
      "name": "owner",
      "outputs": [
        {
          "internalType": "address",
          "name": "",
          "type": "address"
        }
      ],
      "stateMutability": "view",
      "type": "function"
    },
    {
      "inputs": [
        {
          "internalType": "address",
          "name": "minter",
          "type": "address"
        }
      ],
      "name": "removeMinter",
      "outputs": [],
      "stateMutability": "nonpayable",
      "type": "function"
    },
    {
      "inputs": [],
      "name": "renounceOwnership",
      "outputs": [],
      "stateMutability": "nonpayable",
      "type": "function"
    },
    {
      "inputs": [],
      "name": "symbol",
      "outputs": [
        {
          "internalType": "string",
          "name": "",
          "type": "string"
        }
      ],
      "stateMutability": "view",
      "type": "function"
    },
    {
      "inputs": [],
      "name": "totalSupply",
      "outputs": [
        {
          "internalType": "uint256",
          "name": "",
          "type": "uint256"
        }
      ],
      "stateMutability": "view",
      "type": "function"
    },
    {
      "inputs": [
        {
          "internalType": "address",
          "name": "to",
          "type": "address"
        },
        {
          "internalType": "uint256",
          "name": "amount",
          "type": "uint256"
        }
      ],
      "name": "transfer",
      "outputs": [
        {
          "internalType": "bool",
          "name": "",
          "type": "bool"
        }
      ],
      "stateMutability": "nonpayable",
      "type": "function"
    },
    {
      "inputs": [
        {
          "internalType": "address",
          "name": "from",
          "type": "address"
        },
        {
          "internalType": "address",
          "name": "to",
          "type": "address"
        },
        {
          "internalType": "uint256",
          "name": "amount",
          "type": "uint256"
        }
      ],
      "name": "transferFrom",
      "outputs": [
        {
          "internalType": "bool",
          "name": "",
          "type": "bool"
        }
      ],
      "stateMutability": "nonpayable",
      "type": "function"
    },
    {
      "inputs": [
        {
          "internalType": "address",
          "name": "newOwner",
          "type": "address"
        }
      ],
      "name": "transferOwnership",
      "outputs": [],
      "stateMutability": "nonpayable",
      "type": "function"
    }
  ],
  "bytecode": "0x60a06040523480156200001157600080fd5b5060405162002d3b38038062002d3b833981810160405281019062000037919062000507565b838381600390816200004a9190620007f8565b5080600490816200005c9190620007f8565b5050506200007f62000073620000f460201b60201c565b620000fc60201b60201c565b81811115620000c5576040517f08c379a0000000000000000000000000000000000000000000000000000000008152600401620000bc9062000966565b60405180910390fd5b81608081815250506000811115620000ea57620000e93382620001c260201b60201c565b5b5050505062000a92565b600033905090565b6000600560009054906101000a900473ffffffffffffffffffffffffffffffffffffffff16905081600560006101000a81548173ffffffffffffffffffffffffffffffffffffffff021916908373ffffffffffffffffffffffffffffffffffffffff1602179055508173ffffffffffffffffffffffffffffffffffffffff168173ffffffffffffffffffffffffffffffffffffffff167f8be0079c531659141344cd1fd0a4f28419497f9722a3daafe3b4186f6b6457e060405160405180910390a35050565b600073ffffffffffffffffffffffffffffffffffffffff168273ffffffffffffffffffffffffffffffffffffffff160362000234576040517f08c379a00000000000000000000000000000000000000000000000000000000081526004016200022b90620009d8565b60405180910390fd5b62000248600083836200032f60201b60201c565b80600260008282546200025c919062000a29565b92505081905550806000808473ffffffffffffffffffffffffffffffffffffffff1673ffffffffffffffffffffffffffffffffffffffff168152602001908152602001600020600082825401925050819055508173ffffffffffffffffffffffffffffffffffffffff16600073ffffffffffffffffffffffffffffffffffffffff167fddf252ad1be2c89b69c2b068fc378daa952ba7f163c4a11628f55a4df523b3ef836040516200030f919062000a75565b60405180910390a36200032b600083836200033460201b60201c565b5050565b505050565b505050565b6000604051905090565b600080fd5b600080fd5b600080fd5b600080fd5b6000601f19601f8301169050919050565b7f4e487b7100000000000000000000000000000000000000000000000000000000600052604160045260246000fd5b620003a28262000357565b810181811067ffffffffffffffff82111715620003c457620003c362000368565b5b80604052505050565b6000620003d962000339565b9050620003e7828262000397565b919050565b600067ffffffffffffffff8211156200040a576200040962000368565b5b620004158262000357565b9050602081019050919050565b60005b838110156200044257808201518184015260208101905062000425565b60008484015250505050565b6000620004656200045f84620003ec565b620003cd565b90508281526020810184848401111562000484576200048362000352565b5b6200049184828562000422565b509392505050565b600082601f830112620004b157620004b06200034d565b5b8151620004c38482602086016200044e565b91505092915050565b6000819050919050565b620004e181620004cc565b8114620004ed57600080fd5b50565b6000815190506200050181620004d6565b92915050565b6000806000806080858703121562000524576200052362000343565b5b600085015167ffffffffffffffff81111562000545576200054462000348565b5b620005538782880162000499565b945050602085015167ffffffffffffffff81111562000577576200057662000348565b5b620005858782880162000499565b93505060406200059887828801620004f0565b9250506060620005ab87828801620004f0565b91505092959194509250565b600081519050919050565b7f4e487b7100000000000000000000000000000000000000000000000000000000600052602260045260246000fd5b600060028204905060018216806200060a57607f821691505b60208210810362000620576200061f620005c2565b5b50919050565b60008190508160005260206000209050919050565b60006020601f8301049050919050565b600082821b905092915050565b6000600883026200068a7fffffffffffffffffffffffffffffffffffffffffffffffffffffffffffffffff826200064b565b6200069686836200064b565b95508019841693508086168417925050509392505050565b6000819050919050565b6000620006d9620006d3620006cd84620004cc565b620006ae565b620004cc565b9050919050565b6000819050919050565b620006f583620006b8565b6200070d6200070482620006e0565b84845462000658565b825550505050565b600090565b6200072462000715565b62000731818484620006ea565b505050565b5b8181101562000759576200074d6000826200071a565b60018101905062000737565b5050565b601f821115620007a857620007728162000626565b6200077d846200063b565b810160208510156200078d578190505b620007a56200079c856200063b565b83018262000736565b50505b505050565b600082821c905092915050565b6000620007cd60001984600802620007ad565b1980831691505092915050565b6000620007e88383620007ba565b9150826002028217905092915050565b6200080382620005b7565b67ffffffffffffffff8111156200081f576200081e62000368565b5b6200082b8254620005f1565b620008388282856200075d565b600060209050601f8311600181146200087057600084156200085b578287015190505b620008678582620007da565b865550620008d7565b601f198416620008808662000626565b60005b82811015620008aa5784890151825560018201915060208501945060208101905062000883565b86831015620008ca5784890151620008c6601f891682620007ba565b8355505b6001600288020188555050505b505050505050565b600082825260208201905092915050565b7f496e697469616c20737570706c792065786365656473206d617820737570706c60008201527f7900000000000000000000000000000000000000000000000000000000000000602082015250565b60006200094e602183620008df565b91506200095b82620008f0565b604082019050919050565b6000602082019050818103600083015262000981816200093f565b9050919050565b7f45524332303a206d696e7420746f20746865207a65726f206164647265737300600082015250565b6000620009c0601f83620008df565b9150620009cd8262000988565b602082019050919050565b60006020820190508181036000830152620009f381620009b1565b9050919050565b7f4e487b7100000000000000000000000000000000000000000000000000000000600052601160045260246000fd5b600062000a3682620004cc565b915062000a4383620004cc565b925082820190508082111562000a5e5762000a5d620009fa565b5b92915050565b62000a6f81620004cc565b82525050565b600060208201905062000a8c600083018462000a64565b92915050565b60805161228662000ab56000396000818161061f01526107b201526122866000f3fe608060405234801561001057600080fd5b50600436106101425760003560e01c806370a08231116100b8578063983b2d561161007c578063983b2d5614610365578063a457c2d714610381578063a9059cbb146103b1578063dd62ed3e146103e1578063f2fde38b14610411578063f46eccc41461042d57610142565b806370a08231146102d3578063715018a61461030357806379cc67901461030d5780638da5cb5b1461032957806395d89b411461034757610142565b80633092afd51161010a5780633092afd514610213578063313ce5671461022f57806332cb6b0c1461024d578063395093511461026b57806340c10f191461029b57806342966c68146102b757610142565b806306fdde0314610147578063095ea7b31461016557806318160ddd146101955780631852e8d9146101b357806323b872dd146101e3575b600080fd5b61014f61045d565b60405161015c919061162c565b60405180910390f35b61017f600480360381019061017a91906116e7565b6104ef565b60405161018c9190611742565b60405180910390f35b61019d610512565b6040516101aa919061176c565b60405180910390f35b6101cd60048036038101906101c891906116e7565b61051c565b6040516101da919061176c565b60405180910390f35b6101fd60048036038101906101f89190611787565b61053f565b60405161020a9190611742565b60405180910390f35b61022d600480360381019061022891906117da565b61056e565b005b610237610614565b6040516102449190611823565b60405180910390f35b61025561061d565b604051610262919061176c565b60405180910390f35b610285600480360381019061028091906116e7565b610641565b6040516102929190611742565b60405180910390f35b6102b560048036038101906102b091906116e7565b610678565b005b6102d160048036038101906102cc919061183e565b610833565b005b6102ed60048036038101906102e891906117da565b610847565b6040516102fa919061176c565b60405180910390f35b61030b61088f565b005b610327600480360381019061032291906116e7565b6108a3565b005b6103316108c3565b60405161033e919061187a565b60405180910390f35b61034f6108ed565b60405161035c919061162c565b60405180910390f35b61037f600480360381019061037a91906117da565b61097f565b005b61039b600480360381019061039691906116e7565b610a94565b6040516103a89190611742565b60405180910390f35b6103cb60048036038101906103c691906116e7565b610b0b565b6040516103d89190611742565b60405180910390f35b6103fb60048036038101906103f69190611895565b610b2e565b604051610408919061176c565b60405180910390f35b61042b600480360381019061042691906117da565b610bb5565b005b610447600480360381019061044291906117da565b610c38565b6040516104549190611742565b60405180910390f35b60606003805461046c90611904565b80601f016020809104026020016040519081016040528092919081815260200182805461049890611904565b80156104e55780601f106104ba576101008083540402835291602001916104e5565b820191906000526020600020905b8154815290600101906020018083116104c857829003601f168201915b5050505050905090565b6000806104fa610c58565b9050610507818585610c60565b600191505092915050565b6000600254905090565b60006064600a8361052d9190611964565b61053791906119d5565b905092915050565b60008061054a610c58565b9050610557858285610e29565b610562858585610eb5565b60019150509392505050565b61057661112b565b6000600660008373ffffffffffffffffffffffffffffffffffffffff1673ffffffffffffffffffffffffffffffffffffffff16815260200190815260200160002060006101000a81548160ff0219169083151502179055508073ffffffffffffffffffffffffffffffffffffffff167fe94479a9f7e1952cc78f2d6baab678adc1b772d936c6583def489e524cb6669260405160405180910390a250565b60006012905090565b7f000000000000000000000000000000000000000000000000000000000000000081565b60008061064c610c58565b905061066d81858561065e8589610b2e565b6106689190611a06565b610c60565b600191505092915050565b600660003373ffffffffffffffffffffffffffffffffffffffff1673ffffffffffffffffffffffffffffffffffffffff16815260200190815260200160002060009054906101000a900460ff168061070257506106d36108c3565b73ffffffffffffffffffffffffffffffffffffffff163373ffffffffffffffffffffffffffffffffffffffff16145b610741576040517f08c379a000000000000000000000000000000000000000000000000000000000815260040161073890611a86565b60405180910390fd5b600073ffffffffffffffffffffffffffffffffffffffff168273ffffffffffffffffffffffffffffffffffffffff16036107b0576040517f08c379a00000000000000000000000000000000000000000000000000000000081526004016107a790611af2565b60405180910390fd5b7f0000000000000000000000000000000000000000000000000000000000000000816107da610512565b6107e49190611a06565b1115610825576040517f08c379a000000000000000000000000000000000000000000000000000000000815260040161081c90611b5e565b60405180910390fd5b61082f82826111a9565b5050565b61084461083e610c58565b826112ff565b50565b60008060008373ffffffffffffffffffffffffffffffffffffffff1673ffffffffffffffffffffffffffffffffffffffff168152602001908152602001600020549050919050565b61089761112b565b6108a160006114cc565b565b6108b5826108af610c58565b83610e29565b6108bf82826112ff565b5050565b6000600560009054906101000a900473ffffffffffffffffffffffffffffffffffffffff16905090565b6060600480546108fc90611904565b80601f016020809104026020016040519081016040528092919081815260200182805461092890611904565b80156109755780601f1061094a57610100808354040283529160200191610975565b820191906000526020600020905b81548152906001019060200180831161095857829003601f168201915b5050505050905090565b61098761112b565b600073ffffffffffffffffffffffffffffffffffffffff168173ffffffffffffffffffffffffffffffffffffffff16036109f6576040517f08c379a00000000000000000000000000000000000000000000000000000000081526004016109ed90611bca565b60405180910390fd5b6001600660008373ffffffffffffffffffffffffffffffffffffffff1673ffffffffffffffffffffffffffffffffffffffff16815260200190815260200160002060006101000a81548160ff0219169083151502179055508073ffffffffffffffffffffffffffffffffffffffff167f6ae172837ea30b801fbfcdd4108aa1d5bf8ff775444fd70256b44e6bf3dfc3f660405160405180910390a250565b600080610a9f610c58565b90506000610aad8286610b2e565b905083811015610af2576040517f08c379a0000000000000000000000000000000000000000000000000000000008152600401610ae990611c5c565b60405180910390fd5b610aff8286868403610c60565b60019250505092915050565b600080610b16610c58565b9050610b23818585610eb5565b600191505092915050565b6000600160008473ffffffffffffffffffffffffffffffffffffffff1673ffffffffffffffffffffffffffffffffffffffff16815260200190815260200160002060008373ffffffffffffffffffffffffffffffffffffffff1673ffffffffffffffffffffffffffffffffffffffff16815260200190815260200160002054905092915050565b610bbd61112b565b600073ffffffffffffffffffffffffffffffffffffffff168173ffffffffffffffffffffffffffffffffffffffff1603610c2c576040517f08c379a0000000000000000000000000000000000000000000000000000000008152600401610c2390611cee565b60405180910390fd5b610c35816114cc565b50565b60066020528060005260406000206000915054906101000a900460ff1681565b600033905090565b600073ffffffffffffffffffffffffffffffffffffffff168373ffffffffffffffffffffffffffffffffffffffff1603610ccf576040517f08c379a0000000000000000000000000000000000000000000000000000000008152600401610cc690611d80565b60405180910390fd5b600073ffffffffffffffffffffffffffffffffffffffff168273ffffffffffffffffffffffffffffffffffffffff1603610d3e576040517f08c379a0000000000000000000000000000000000000000000000000000000008152600401610d3590611e12565b60405180910390fd5b80600160008573ffffffffffffffffffffffffffffffffffffffff1673ffffffffffffffffffffffffffffffffffffffff16815260200190815260200160002060008473ffffffffffffffffffffffffffffffffffffffff1673ffffffffffffffffffffffffffffffffffffffff168152602001908152602001600020819055508173ffffffffffffffffffffffffffffffffffffffff168373ffffffffffffffffffffffffffffffffffffffff167f8c5be1e5ebec7d5bd14f71427d1e84f3dd0314c0f7b2291e5b200ac8c7c3b92583604051610e1c919061176c565b60405180910390a3505050565b6000610e358484610b2e565b90507fffffffffffffffffffffffffffffffffffffffffffffffffffffffffffffffff8114610eaf5781811015610ea1576040517f08c379a0000000000000000000000000000000000000000000000000000000008152600401610e9890611e7e565b60405180910390fd5b610eae8484848403610c60565b5b50505050565b600073ffffffffffffffffffffffffffffffffffffffff168373ffffffffffffffffffffffffffffffffffffffff1603610f24576040517f08c379a0000000000000000000000000000000000000000000000000000000008152600401610f1b90611f10565b60405180910390fd5b600073ffffffffffffffffffffffffffffffffffffffff168273ffffffffffffffffffffffffffffffffffffffff1603610f93576040517f08c379a0000000000000000000000000000000000000000000000000000000008152600401610f8a90611fa2565b60405180910390fd5b610f9e838383611592565b60008060008573ffffffffffffffffffffffffffffffffffffffff1673ffffffffffffffffffffffffffffffffffffffff16815260200190815260200160002054905081811015611024576040517f08c379a000000000000000000000000000000000000000000000000000000000815260040161101b90612034565b60405180910390fd5b8181036000808673ffffffffffffffffffffffffffffffffffffffff1673ffffffffffffffffffffffffffffffffffffffff16815260200190815260200160002081905550816000808573ffffffffffffffffffffffffffffffffffffffff1673ffffffffffffffffffffffffffffffffffffffff168152602001908152602001600020600082825401925050819055508273ffffffffffffffffffffffffffffffffffffffff168473ffffffffffffffffffffffffffffffffffffffff167fddf252ad1be2c89b69c2b068fc378daa952ba7f163c4a11628f55a4df523b3ef84604051611112919061176c565b60405180910390a3611125848484611597565b50505050565b611133610c58565b73ffffffffffffffffffffffffffffffffffffffff166111516108c3565b73ffffffffffffffffffffffffffffffffffffffff16146111a7576040517f08c379a000000000000000000000000000000000000000000000000000000000815260040161119e906120a0565b60405180910390fd5b565b600073ffffffffffffffffffffffffffffffffffffffff168273ffffffffffffffffffffffffffffffffffffffff1603611218576040517f08c379a000000000000000000000000000000000000000000000000000000000815260040161120f9061210c565b60405180910390fd5b61122460008383611592565b80600260008282546112369190611a06565b92505081905550806000808473ffffffffffffffffffffffffffffffffffffffff1673ffffffffffffffffffffffffffffffffffffffff168152602001908152602001600020600082825401925050819055508173ffffffffffffffffffffffffffffffffffffffff16600073ffffffffffffffffffffffffffffffffffffffff167fddf252ad1be2c89b69c2b068fc378daa952ba7f163c4a11628f55a4df523b3ef836040516112e7919061176c565b60405180910390a36112fb60008383611597565b5050565b600073ffffffffffffffffffffffffffffffffffffffff168273ffffffffffffffffffffffffffffffffffffffff160361136e576040517f08c379a00000000000000000000000000000000000000000000000000000000081526004016113659061219e565b60405180910390fd5b61137a82600083611592565b60008060008473ffffffffffffffffffffffffffffffffffffffff1673ffffffffffffffffffffffffffffffffffffffff16815260200190815260200160002054905081811015611400576040517f08c379a00000000000000000000000000000000000000000000000000000000081526004016113f790612230565b60405180910390fd5b8181036000808573ffffffffffffffffffffffffffffffffffffffff1673ffffffffffffffffffffffffffffffffffffffff1681526020019081526020016000208190555081600260008282540392505081905550600073ffffffffffffffffffffffffffffffffffffffff168373ffffffffffffffffffffffffffffffffffffffff167fddf252ad1be2c89b69c2b068fc378daa952ba7f163c4a11628f55a4df523b3ef846040516114b3919061176c565b60405180910390a36114c783600084611597565b505050565b6000600560009054906101000a900473ffffffffffffffffffffffffffffffffffffffff16905081600560006101000a81548173ffffffffffffffffffffffffffffffffffffffff021916908373ffffffffffffffffffffffffffffffffffffffff1602179055508173ffffffffffffffffffffffffffffffffffffffff168173ffffffffffffffffffffffffffffffffffffffff167f8be0079c531659141344cd1fd0a4f28419497f9722a3daafe3b4186f6b6457e060405160405180910390a35050565b505050565b505050565b600081519050919050565b600082825260208201905092915050565b60005b838110156115d65780820151818401526020810190506115bb565b60008484015250505050565b6000601f19601f8301169050919050565b60006115fe8261159c565b61160881856115a7565b93506116188185602086016115b8565b611621816115e2565b840191505092915050565b6000602082019050818103600083015261164681846115f3565b905092915050565b600080fd5b600073ffffffffffffffffffffffffffffffffffffffff82169050919050565b600061167e82611653565b9050919050565b61168e81611673565b811461169957600080fd5b50565b6000813590506116ab81611685565b92915050565b6000819050919050565b6116c4816116b1565b81146116cf57600080fd5b50565b6000813590506116e1816116bb565b92915050565b600080604083850312156116fe576116fd61164e565b5b600061170c8582860161169c565b925050602061171d858286016116d2565b9150509250929050565b60008115159050919050565b61173c81611727565b82525050565b60006020820190506117576000830184611733565b92915050565b611766816116b1565b82525050565b6000602082019050611781600083018461175d565b92915050565b6000806000606084860312156117a05761179f61164e565b5b60006117ae8682870161169c565b93505060206117bf8682870161169c565b92505060406117d0868287016116d2565b9150509250925092565b6000602082840312156117f0576117ef61164e565b5b60006117fe8482850161169c565b91505092915050565b600060ff82169050919050565b61181d81611807565b82525050565b60006020820190506118386000830184611814565b92915050565b6000602082840312156118545761185361164e565b5b6000611862848285016116d2565b91505092915050565b61187481611673565b82525050565b600060208201905061188f600083018461186b565b92915050565b600080604083850312156118ac576118ab61164e565b5b60006118ba8582860161169c565b92505060206118cb8582860161169c565b9150509250929050565b7f4e487b7100000000000000000000000000000000000000000000000000000000600052602260045260246000fd5b6000600282049050600182168061191c57607f821691505b60208210810361192f5761192e6118d5565b5b50919050565b7f4e487b7100000000000000000000000000000000000000000000000000000000600052601160045260246000fd5b600061196f826116b1565b915061197a836116b1565b9250828202611988816116b1565b9150828204841483151761199f5761199e611935565b5b5092915050565b7f4e487b7100000000000000000000000000000000000000000000000000000000600052601260045260246000fd5b60006119e0826116b1565b91506119eb836116b1565b9250826119fb576119fa6119a6565b5b828204905092915050565b6000611a11826116b1565b9150611a1c836116b1565b9250828201905080821115611a3457611a33611935565b5b92915050565b7f4e6f7420617574686f72697a656420746f206d696e7400000000000000000000600082015250565b6000611a706016836115a7565b9150611a7b82611a3a565b602082019050919050565b60006020820190508181036000830152611a9f81611a63565b9050919050565b7f43616e6e6f74206d696e7420746f207a65726f20616464726573730000000000600082015250565b6000611adc601b836115a7565b9150611ae782611aa6565b602082019050919050565b60006020820190508181036000830152611b0b81611acf565b9050919050565b7f45786365656473206d6178696d756d20737570706c7900000000000000000000600082015250565b6000611b486016836115a7565b9150611b5382611b12565b602082019050919050565b60006020820190508181036000830152611b7781611b3b565b9050919050565b7f4d696e7465722063616e6e6f74206265207a65726f2061646472657373000000600082015250565b6000611bb4601d836115a7565b9150611bbf82611b7e565b602082019050919050565b60006020820190508181036000830152611be381611ba7565b9050919050565b7f45524332303a2064656372656173656420616c6c6f77616e63652062656c6f7760008201527f207a65726f000000000000000000000000000000000000000000000000000000602082015250565b6000611c466025836115a7565b9150611c5182611bea565b604082019050919050565b60006020820190508181036000830152611c7581611c39565b9050919050565b7f4f776e61626c653a206e6577206f776e657220697320746865207a65726f206160008201527f6464726573730000000000000000000000000000000000000000000000000000602082015250565b6000611cd86026836115a7565b9150611ce382611c7c565b604082019050919050565b60006020820190508181036000830152611d0781611ccb565b9050919050565b7f45524332303a20617070726f76652066726f6d20746865207a65726f2061646460008201527f7265737300000000000000000000000000000000000000000000000000000000602082015250565b6000611d6a6024836115a7565b9150611d7582611d0e565b604082019050919050565b60006020820190508181036000830152611d9981611d5d565b9050919050565b7f45524332303a20617070726f766520746f20746865207a65726f20616464726560008201527f7373000000000000000000000000000000000000000000000000000000000000602082015250565b6000611dfc6022836115a7565b9150611e0782611da0565b604082019050919050565b60006020820190508181036000830152611e2b81611def565b9050919050565b7f45524332303a20696e73756666696369656e7420616c6c6f77616e6365000000600082015250565b6000611e68601d836115a7565b9150611e7382611e32565b602082019050919050565b60006020820190508181036000830152611e9781611e5b565b9050919050565b7f45524332303a207472616e736665722066726f6d20746865207a65726f20616460008201527f6472657373000000000000000000000000000000000000000000000000000000602082015250565b6000611efa6025836115a7565b9150611f0582611e9e565b604082019050919050565b60006020820190508181036000830152611f2981611eed565b9050919050565b7f45524332303a207472616e7366657220746f20746865207a65726f206164647260008201527f6573730000000000000000000000000000000000000000000000000000000000602082015250565b6000611f8c6023836115a7565b9150611f9782611f30565b604082019050919050565b60006020820190508181036000830152611fbb81611f7f565b9050919050565b7f45524332303a207472616e7366657220616d6f756e742065786365656473206260008201527f616c616e63650000000000000000000000000000000000000000000000000000602082015250565b600061201e6026836115a7565b915061202982611fc2565b604082019050919050565b6000602082019050818103600083015261204d81612011565b9050919050565b7f4f776e61626c653a2063616c6c6572206973206e6f7420746865206f776e6572600082015250565b600061208a6020836115a7565b915061209582612054565b602082019050919050565b600060208201905081810360008301526120b98161207d565b9050919050565b7f45524332303a206d696e7420746f20746865207a65726f206164647265737300600082015250565b60006120f6601f836115a7565b9150612101826120c0565b602082019050919050565b60006020820190508181036000830152612125816120e9565b9050919050565b7f45524332303a206275726e2066726f6d20746865207a65726f2061646472657360008201527f7300000000000000000000000000000000000000000000000000000000000000602082015250565b60006121886021836115a7565b91506121938261212c565b604082019050919050565b600060208201905081810360008301526121b78161217b565b9050919050565b7f45524332303a206275726e20616d6f756e7420657863656564732062616c616e60008201527f6365000000000000000000000000000000000000000000000000000000000000602082015250565b600061221a6022836115a7565b9150612225826121be565b604082019050919050565b600060208201905081810360008301526122498161220d565b905091905056fea2646970667358221220c2cc7e467cb7123c178fc2e9658f0a51218c3db3f4866defdbd860817e0496c664736f6c63430008110033",
  "linkReferences": {},
  "deployedLinkReferences": {}
}