{
  "_format": "hh-sol-artifact-1",
  "contractName": "AIOracle",
  "sourceName": "contracts/AIOracle.sol",
  "abi": [
    {
      "inputs": [
        {
          "internalType": "address",
          "name": "_governance",
          "type": "address"
        },
        {
          "internalType": "uint256",
          "name": "_minVotesRequired",
          "type": "uint256"
        },
        {
          "internalType": "uint256",
          "name": "_verificationThreshold",
          "type": "uint256"
        }
      ],
      "stateMutability": "nonpayable",
      "type": "constructor"
    },
    {
      "anonymous": false,
      "inputs": [
        {
          "indexed": true,
          "internalType": "uint256",
          "name": "submissionId",
          "type": "uint256"
        },
        {
          "indexed": true,
          "internalType": "address",
          "name": "submitter",
          "type": "address"
        },
        {
          "indexed": false,
          "internalType": "string",
          "name": "dataType",
          "type": "string"
        },
        {
          "indexed": false,
          "internalType": "uint256",
          "name": "timestamp",
          "type": "uint256"
        }
      ],
      "name": "DataSubmitted",
      "type": "event"
    },
    {
      "anonymous": false,
      "inputs": [
        {
          "indexed": true,
          "internalType": "uint256",
          "name": "submissionId",
          "type": "uint256"
        },
        {
          "indexed": false,
          "internalType": "bool",
          "name": "verified",
          "type": "bool"
        }
      ],
      "name": "DataVerified",
      "type": "event"
    },
    {
      "anonymous": false,
      "inputs": [
        {
          "indexed": true,
          "internalType": "uint256",
          "name": "submissionId",
          "type": "uint256"
        },
        {
          "indexed": true,
          "internalType": "address",
          "name": "voter",
          "type": "address"
        },
        {
          "indexed": false,
          "internalType": "bool",
          "name": "support",
          "type": "bool"
        }
      ],
      "name": "VoteCast",
      "type": "event"
    },
    {
      "inputs": [
        {
          "internalType": "uint256",
          "name": "submissionId",
          "type": "uint256"
        },
        {
          "internalType": "bool",
          "name": "support",
          "type": "bool"
        }
      ],
      "name": "castVote",
      "outputs": [],
      "stateMutability": "nonpayable",
      "type": "function"
    },
    {
      "inputs": [
        {
          "internalType": "string",
          "name": "dataType",
          "type": "string"
        }
      ],
      "name": "getLatestData",
      "outputs": [
        {
          "internalType": "string",
          "name": "dataValue",
          "type": "string"
        },
        {
          "internalType": "uint256",
          "name": "timestamp",
          "type": "uint256"
        },
        {
          "internalType": "uint256",
          "name": "confidence",
          "type": "uint256"
        }
      ],
      "stateMutability": "view",
      "type": "function"
    },
    {
      "inputs": [
        {
          "internalType": "uint256",
          "name": "submissionId",
          "type": "uint256"
        }
      ],
      "name": "getSubmission",
      "outputs": [
        {
          "components": [
            {
              "internalType": "address",
              "name": "submitter",
              "type": "address"
            },
            {
              "internalType": "string",
              "name": "dataType",
              "type": "string"
            },
            {
              "internalType": "string",
              "name": "dataValue",
              "type": "string"
            },
            {
              "internalType": "uint256",
              "name": "timestamp",
              "type": "uint256"
            },
            {
              "internalType": "uint256",
              "name": "confidence",
              "type": "uint256"
            },
            {
              "internalType": "bool",
              "name": "verified",
              "type": "bool"
            },
            {
              "internalType": "uint256",
              "name": "votesFor",
              "type": "uint256"
            },
            {
              "internalType": "uint256",
              "name": "votesAgainst",
              "type": "uint256"
            }
          ],
          "internalType": "struct IAIOracle.DataSubmission",
          "name": "",
          "type": "tuple"
        }
      ],
      "stateMutability": "view",
      "type": "function"
    },
    {
      "inputs": [],
      "name": "governance",
      "outputs": [
        {
          "internalType": "address",
          "name": "",
          "type": "address"
        }
      ],
      "stateMutability": "view",
      "type": "function"
    },
    {
      "inputs": [],
      "name": "minVotesRequired",
      "outputs": [
        {
          "internalType": "uint256",
          "name": "",
          "type": "uint256"
        }
      ],
      "stateMutability": "view",
      "type": "function"
    },
    {
      "inputs": [
        {
          "internalType": "string",
          "name": "dataType",
          "type": "string"
        },
        {
          "internalType": "string",
          "name": "dataValue",
          "type": "string"
        },
        {
          "internalType": "uint256",
          "name": "confidence",
          "type": "uint256"
        }
      ],
      "name": "submitData",
      "outputs": [
        {
          "internalType": "uint256",
          "name": "submissionId",
          "type": "uint256"
        }
      ],
      "stateMutability": "nonpayable",
      "type": "function"
    },
    {
      "inputs": [
        {
          "internalType": "address",
          "name": "_governance",
          "type": "address"
        }
      ],
      "name": "updateGovernance",
      "outputs": [],
      "stateMutability": "nonpayable",
      "type": "function"
    },
    {
      "inputs": [
        {
          "internalType": "uint256",
          "name": "_minVotesRequired",
          "type": "uint256"
        }
      ],
      "name": "updateMinVotesRequired",
      "outputs": [],
      "stateMutability": "nonpayable",
      "type": "function"
    },
    {
      "inputs": [
        {
          "internalType": "uint256",
          "name": "_verificationThreshold",
          "type": "uint256"
        }
      ],
      "name": "updateVerificationThreshold",
      "outputs": [],
      "stateMutability": "nonpayable",
      "type": "function"
    },
    {
      "inputs": [],
      "name": "verificationThreshold",
      "outputs": [
        {
          "internalType": "uint256",
          "name": "",
          "type": "uint256"
        }
      ],
      "stateMutability": "view",
      "type": "function"
    }
  ],
  "bytecode": "0x60806040523480156200001157600080fd5b50604051620020d5380380620020d58339818101604052810190620000379190620001a5565b600073ffffffffffffffffffffffffffffffffffffffff168373ffffffffffffffffffffffffffffffffffffffff1603620000a9576040517f08c379a0000000000000000000000000000000000000000000000000000000008152600401620000a09062000288565b60405180910390fd5b826000806101000a81548173ffffffffffffffffffffffffffffffffffffffff021916908373ffffffffffffffffffffffffffffffffffffffff1602179055508160028190555080600381905550505050620002aa565b600080fd5b600073ffffffffffffffffffffffffffffffffffffffff82169050919050565b6000620001328262000105565b9050919050565b620001448162000125565b81146200015057600080fd5b50565b600081519050620001648162000139565b92915050565b6000819050919050565b6200017f816200016a565b81146200018b57600080fd5b50565b6000815190506200019f8162000174565b92915050565b600080600060608486031215620001c157620001c062000100565b5b6000620001d18682870162000153565b9350506020620001e4868287016200018e565b9250506040620001f7868287016200018e565b9150509250925092565b600082825260208201905092915050565b7f41494f7261636c653a20676f7665726e616e63652063616e6e6f74206265207a60008201527f65726f2061646472657373000000000000000000000000000000000000000000602082015250565b600062000270602b8362000201565b91506200027d8262000212565b604082019050919050565b60006020820190508181036000830152620002a38162000261565b9050919050565b611e1b80620002ba6000396000f3fe608060405234801561001057600080fd5b506004361061009e5760003560e01c80635aa6e675116100665780635aa6e6751461015b57806389aa56a414610179578063b256126314610195578063d9927278146101b1578063f12c2df1146101e35761009e565b806315373e3d146100a3578063167feb09146100bf578063391f0f8e146100dd5780633e8686cc1461010d578063403fb4a81461013d575b600080fd5b6100bd60048036038101906100b89190610ef5565b6101ff565b005b6100c76104a3565b6040516100d49190610f44565b60405180910390f35b6100f760048036038101906100f29190610fc4565b6104a9565b6040516101049190610f44565b60405180910390f35b61012760048036038101906101229190611059565b610712565b604051610134919061122c565b60405180910390f35b6101456108fd565b6040516101529190610f44565b60405180910390f35b610163610903565b604051610170919061125d565b60405180910390f35b610193600480360381019061018e9190611059565b610927565b005b6101af60048036038101906101aa91906112a4565b610a03565b005b6101cb60048036038101906101c691906112d1565b610b43565b6040516101da93929190611368565b60405180910390f35b6101fd60048036038101906101f89190611059565b610c70565b005b6000600460008481526020019081526020016000209050600073ffffffffffffffffffffffffffffffffffffffff168160000160009054906101000a900473ffffffffffffffffffffffffffffffffffffffff1673ffffffffffffffffffffffffffffffffffffffff16036102a9576040517f08c379a00000000000000000000000000000000000000000000000000000000081526004016102a090611418565b60405180910390fd5b8060050160009054906101000a900460ff16156102fb576040517f08c379a00000000000000000000000000000000000000000000000000000000081526004016102f2906114aa565b60405180910390fd5b6006600084815260200190815260200160002060003373ffffffffffffffffffffffffffffffffffffffff1673ffffffffffffffffffffffffffffffffffffffff16815260200190815260200160002060009054906101000a900460ff1615610399576040517f08c379a000000000000000000000000000000000000000000000000000000000815260040161039090611516565b60405180910390fd5b60016006600085815260200190815260200160002060003373ffffffffffffffffffffffffffffffffffffffff1673ffffffffffffffffffffffffffffffffffffffff16815260200190815260200160002060006101000a81548160ff021916908315150217905550811561042957600181600601600082825461041d9190611565565b92505081905550610446565b600181600701600082825461043e9190611565565b925050819055505b3373ffffffffffffffffffffffffffffffffffffffff16837fe71fcdac32df1877c1700e7bda2a03157e20993363a28fc35ac495cefc76e4d48460405161048d91906115a8565b60405180910390a361049e83610d08565b505050565b60035481565b600060648211156104ef576040517f08c379a00000000000000000000000000000000000000000000000000000000081526004016104e690611635565b60405180910390fd5b6001600081548092919061050290611655565b9190505590506040518061010001604052803373ffffffffffffffffffffffffffffffffffffffff16815260200187878080601f016020809104026020016040519081016040528093929190818152602001838380828437600081840152601f19601f82011690508083019250505050505050815260200185858080601f016020809104026020016040519081016040528093929190818152602001838380828437600081840152601f19601f8201169050808301925050505050505081526020014281526020018381526020016000151581526020016000815260200160008152506004600083815260200190815260200160002060008201518160000160006101000a81548173ffffffffffffffffffffffffffffffffffffffff021916908373ffffffffffffffffffffffffffffffffffffffff160217905550602082015181600101908161065491906118d8565b50604082015181600201908161066a91906118d8565b50606082015181600301556080820151816004015560a08201518160050160006101000a81548160ff02191690831515021790555060c0820151816006015560e082015181600701559050503373ffffffffffffffffffffffffffffffffffffffff16817fe44f3bd35b570c93c3c19d043c8c6de9214a29236134ec836b7cee21d01e5a06888842604051610701939291906119e6565b60405180910390a395945050505050565b61071a610e20565b60046000838152602001908152602001600020604051806101000160405290816000820160009054906101000a900473ffffffffffffffffffffffffffffffffffffffff1673ffffffffffffffffffffffffffffffffffffffff1673ffffffffffffffffffffffffffffffffffffffff16815260200160018201805461079f906116fb565b80601f01602080910402602001604051908101604052809291908181526020018280546107cb906116fb565b80156108185780601f106107ed57610100808354040283529160200191610818565b820191906000526020600020905b8154815290600101906020018083116107fb57829003601f168201915b50505050508152602001600282018054610831906116fb565b80601f016020809104026020016040519081016040528092919081815260200182805461085d906116fb565b80156108aa5780601f1061087f576101008083540402835291602001916108aa565b820191906000526020600020905b81548152906001019060200180831161088d57829003601f168201915b5050505050815260200160038201548152602001600482015481526020016005820160009054906101000a900460ff16151515158152602001600682015481526020016007820154815250509050919050565b60025481565b60008054906101000a900473ffffffffffffffffffffffffffffffffffffffff1681565b60008054906101000a900473ffffffffffffffffffffffffffffffffffffffff1673ffffffffffffffffffffffffffffffffffffffff163373ffffffffffffffffffffffffffffffffffffffff16146109b5576040517f08c379a00000000000000000000000000000000000000000000000000000000081526004016109ac90611a8a565b60405180910390fd5b60648111156109f9576040517f08c379a00000000000000000000000000000000000000000000000000000000081526004016109f090611b1c565b60405180910390fd5b8060038190555050565b60008054906101000a900473ffffffffffffffffffffffffffffffffffffffff1673ffffffffffffffffffffffffffffffffffffffff163373ffffffffffffffffffffffffffffffffffffffff1614610a91576040517f08c379a0000000000000000000000000000000000000000000000000000000008152600401610a8890611a8a565b60405180910390fd5b600073ffffffffffffffffffffffffffffffffffffffff168173ffffffffffffffffffffffffffffffffffffffff1603610b00576040517f08c379a0000000000000000000000000000000000000000000000000000000008152600401610af790611bae565b60405180910390fd5b806000806101000a81548173ffffffffffffffffffffffffffffffffffffffff021916908373ffffffffffffffffffffffffffffffffffffffff16021790555050565b6060600080600060058686604051610b5c929190611bfe565b908152602001604051809103902054905060008111610bb0576040517f08c379a0000000000000000000000000000000000000000000000000000000008152600401610ba790611c89565b60405180910390fd5b60006004600083815260200190815260200160002090508060020181600301548260040154828054610be1906116fb565b80601f0160208091040260200160405190810160405280929190818152602001828054610c0d906116fb565b8015610c5a5780601f10610c2f57610100808354040283529160200191610c5a565b820191906000526020600020905b815481529060010190602001808311610c3d57829003601f168201915b5050505050925094509450945050509250925092565b60008054906101000a900473ffffffffffffffffffffffffffffffffffffffff1673ffffffffffffffffffffffffffffffffffffffff163373ffffffffffffffffffffffffffffffffffffffff1614610cfe576040517f08c379a0000000000000000000000000000000000000000000000000000000008152600401610cf590611a8a565b60405180910390fd5b8060028190555050565b60006004600083815260200190815260200160002090508060050160009054906101000a900460ff1680610d50575060025481600701548260060154610d4e9190611565565b105b15610d5b5750610e1d565b600081600701548260060154610d719190611565565b905060008160648460060154610d879190611ca9565b610d919190611d1a565b90506003548110610e195760018360050160006101000a81548160ff02191690831515021790555083600584600101604051610dcd9190611dce565b908152602001604051809103902081905550837ff19148bda0275c7e02551aef3146ba849cd2b861d970501ee44a80ccdf87535e6001604051610e1091906115a8565b60405180910390a25b5050505b50565b604051806101000160405280600073ffffffffffffffffffffffffffffffffffffffff1681526020016060815260200160608152602001600081526020016000815260200160001515815260200160008152602001600081525090565b600080fd5b600080fd5b6000819050919050565b610e9a81610e87565b8114610ea557600080fd5b50565b600081359050610eb781610e91565b92915050565b60008115159050919050565b610ed281610ebd565b8114610edd57600080fd5b50565b600081359050610eef81610ec9565b92915050565b60008060408385031215610f0c57610f0b610e7d565b5b6000610f1a85828601610ea8565b9250506020610f2b85828601610ee0565b9150509250929050565b610f3e81610e87565b82525050565b6000602082019050610f596000830184610f35565b92915050565b600080fd5b600080fd5b600080fd5b60008083601f840112610f8457610f83610f5f565b5b8235905067ffffffffffffffff811115610fa157610fa0610f64565b5b602083019150836001820283011115610fbd57610fbc610f69565b5b9250929050565b600080600080600060608688031215610fe057610fdf610e7d565b5b600086013567ffffffffffffffff811115610ffe57610ffd610e82565b5b61100a88828901610f6e565b9550955050602086013567ffffffffffffffff81111561102d5761102c610e82565b5b61103988828901610f6e565b9350935050604061104c88828901610ea8565b9150509295509295909350565b60006020828403121561106f5761106e610e7d565b5b600061107d84828501610ea8565b91505092915050565b600073ffffffffffffffffffffffffffffffffffffffff82169050919050565b60006110b182611086565b9050919050565b6110c1816110a6565b82525050565b600081519050919050565b600082825260208201905092915050565b60005b838110156111015780820151818401526020810190506110e6565b60008484015250505050565b6000601f19601f8301169050919050565b6000611129826110c7565b61113381856110d2565b93506111438185602086016110e3565b61114c8161110d565b840191505092915050565b61116081610e87565b82525050565b61116f81610ebd565b82525050565b60006101008301600083015161118e60008601826110b8565b50602083015184820360208601526111a6828261111e565b915050604083015184820360408601526111c0828261111e565b91505060608301516111d56060860182611157565b5060808301516111e86080860182611157565b5060a08301516111fb60a0860182611166565b5060c083015161120e60c0860182611157565b5060e083015161122160e0860182611157565b508091505092915050565b600060208201905081810360008301526112468184611175565b905092915050565b611257816110a6565b82525050565b6000602082019050611272600083018461124e565b92915050565b611281816110a6565b811461128c57600080fd5b50565b60008135905061129e81611278565b92915050565b6000602082840312156112ba576112b9610e7d565b5b60006112c88482850161128f565b91505092915050565b600080602083850312156112e8576112e7610e7d565b5b600083013567ffffffffffffffff81111561130657611305610e82565b5b61131285828601610f6e565b92509250509250929050565b600082825260208201905092915050565b600061133a826110c7565b611344818561131e565b93506113548185602086016110e3565b61135d8161110d565b840191505092915050565b60006060820190508181036000830152611382818661132f565b90506113916020830185610f35565b61139e6040830184610f35565b949350505050565b7f41494f7261636c653a207375626d697373696f6e20646f6573206e6f7420657860008201527f6973740000000000000000000000000000000000000000000000000000000000602082015250565b600061140260238361131e565b915061140d826113a6565b604082019050919050565b60006020820190508181036000830152611431816113f5565b9050919050565b7f41494f7261636c653a207375626d697373696f6e20616c72656164792076657260008201527f6966696564000000000000000000000000000000000000000000000000000000602082015250565b600061149460258361131e565b915061149f82611438565b604082019050919050565b600060208201905081810360008301526114c381611487565b9050919050565b7f41494f7261636c653a20616c726561647920766f746564000000000000000000600082015250565b600061150060178361131e565b915061150b826114ca565b602082019050919050565b6000602082019050818103600083015261152f816114f3565b9050919050565b7f4e487b7100000000000000000000000000000000000000000000000000000000600052601160045260246000fd5b600061157082610e87565b915061157b83610e87565b925082820190508082111561159357611592611536565b5b92915050565b6115a281610ebd565b82525050565b60006020820190506115bd6000830184611599565b92915050565b7f41494f7261636c653a20636f6e666964656e6365206d7573742062652062657460008201527f7765656e20302d31303000000000000000000000000000000000000000000000602082015250565b600061161f602a8361131e565b915061162a826115c3565b604082019050919050565b6000602082019050818103600083015261164e81611612565b9050919050565b600061166082610e87565b91507fffffffffffffffffffffffffffffffffffffffffffffffffffffffffffffffff820361169257611691611536565b5b600182019050919050565b7f4e487b7100000000000000000000000000000000000000000000000000000000600052604160045260246000fd5b7f4e487b7100000000000000000000000000000000000000000000000000000000600052602260045260246000fd5b6000600282049050600182168061171357607f821691505b602082108103611726576117256116cc565b5b50919050565b60008190508160005260206000209050919050565b60006020601f8301049050919050565b600082821b905092915050565b60006008830261178e7fffffffffffffffffffffffffffffffffffffffffffffffffffffffffffffffff82611751565b6117988683611751565b95508019841693508086168417925050509392505050565b6000819050919050565b60006117d56117d06117cb84610e87565b6117b0565b610e87565b9050919050565b6000819050919050565b6117ef836117ba565b6118036117fb826117dc565b84845461175e565b825550505050565b600090565b61181861180b565b6118238184846117e6565b505050565b5b818110156118475761183c600082611810565b600181019050611829565b5050565b601f82111561188c5761185d8161172c565b61186684611741565b81016020851015611875578190505b61188961188185611741565b830182611828565b50505b505050565b600082821c905092915050565b60006118af60001984600802611891565b1980831691505092915050565b60006118c8838361189e565b9150826002028217905092915050565b6118e1826110c7565b67ffffffffffffffff8111156118fa576118f961169d565b5b61190482546116fb565b61190f82828561184b565b600060209050601f8311600181146119425760008415611930578287015190505b61193a85826118bc565b8655506119a2565b601f1984166119508661172c565b60005b8281101561197857848901518255600182019150602085019450602081019050611953565b868310156119955784890151611991601f89168261189e565b8355505b6001600288020188555050505b505050505050565b82818337600083830152505050565b60006119c5838561131e565b93506119d28385846119aa565b6119db8361110d565b840190509392505050565b60006040820190508181036000830152611a018185876119b9565b9050611a106020830184610f35565b949350505050565b7f41494f7261636c653a2063616c6c6572206973206e6f7420676f7665726e616e60008201527f6365000000000000000000000000000000000000000000000000000000000000602082015250565b6000611a7460228361131e565b9150611a7f82611a18565b604082019050919050565b60006020820190508181036000830152611aa381611a67565b9050919050565b7f41494f7261636c653a207468726573686f6c64206d757374206265206265747760008201527f65656e20302d3130300000000000000000000000000000000000000000000000602082015250565b6000611b0660298361131e565b9150611b1182611aaa565b604082019050919050565b60006020820190508181036000830152611b3581611af9565b9050919050565b7f41494f7261636c653a20676f7665726e616e63652063616e6e6f74206265207a60008201527f65726f2061646472657373000000000000000000000000000000000000000000602082015250565b6000611b98602b8361131e565b9150611ba382611b3c565b604082019050919050565b60006020820190508181036000830152611bc781611b8b565b9050919050565b600081905092915050565b6000611be58385611bce565b9350611bf28385846119aa565b82840190509392505050565b6000611c0b828486611bd9565b91508190509392505050565b7f41494f7261636c653a206e6f207665726966696564206461746120666f72207460008201527f6869732074797065000000000000000000000000000000000000000000000000602082015250565b6000611c7360288361131e565b9150611c7e82611c17565b604082019050919050565b60006020820190508181036000830152611ca281611c66565b9050919050565b6000611cb482610e87565b9150611cbf83610e87565b9250828202611ccd81610e87565b91508282048414831517611ce457611ce3611536565b5b5092915050565b7f4e487b7100000000000000000000000000000000000000000000000000000000600052601260045260246000fd5b6000611d2582610e87565b9150611d3083610e87565b925082611d4057611d3f611ceb565b5b828204905092915050565b60008154611d58816116fb565b611d628186611bce565b94506001821660008114611d7d5760018114611d9257611dc5565b60ff1983168652811515820286019350611dc5565b611d9b8561172c565b60005b83811015611dbd57815481890152600182019150602081019050611d9e565b838801955050505b50505092915050565b6000611dda8284611d4b565b91508190509291505056fea2646970667358221220b9a3e8d0637986f053c6295e4d859be06aca3bb0c088198af3366bf6b0d0e35764736f6c63430008110033",
  "linkReferences": {},
  "deployedLinkReferences": {}
}