{
  "_format": "hh-sol-artifact-1",
  "contractName": "Staking",
  "sourceName": "contracts/staking/Staking.sol",
  "abi": [
    {
      "inputs": [
        {
          "internalType": "address",
          "name": "_rewardToken",
          "type": "address"
        },
        {
          "internalType": "address",
          "name": "_governanceContract",
          "type": "address"
        },
        {
          "internalType": "uint256",
          "name": "_minimumStakingPeriod",
          "type": "uint256"
        },
        {
          "internalType": "uint256",
          "name": "_apy",
          "type": "uint256"
        }
      ],
      "stateMutability": "nonpayable",
      "type": "constructor"
    },
    {
      "anonymous": false,
      "inputs": [
        {
          "indexed": false,
          "internalType": "uint256",
          "name": "oldApy",
          "type": "uint256"
        },
        {
          "indexed": false,
          "internalType": "uint256",
          "name": "newApy",
          "type": "uint256"
        }
      ],
      "name": "APYUpdated",
      "type": "event"
    },
    {
      "anonymous": false,
      "inputs": [
        {
          "indexed": false,
          "internalType": "address",
          "name": "oldContract",
          "type": "address"
        },
        {
          "indexed": false,
          "internalType": "address",
          "name": "newContract",
          "type": "address"
        }
      ],
      "name": "GovernanceContractUpdated",
      "type": "event"
    },
    {
      "anonymous": false,
      "inputs": [
        {
          "indexed": false,
          "internalType": "uint256",
          "name": "oldPeriod",
          "type": "uint256"
        },
        {
          "indexed": false,
          "internalType": "uint256",
          "name": "newPeriod",
          "type": "uint256"
        }
      ],
      "name": "MinimumStakingPeriodUpdated",
      "type": "event"
    },
    {
      "anonymous": false,
      "inputs": [
        {
          "indexed": true,
          "internalType": "address",
          "name": "previousOwner",
          "type": "address"
        },
        {
          "indexed": true,
          "internalType": "address",
          "name": "newOwner",
          "type": "address"
        }
      ],
      "name": "OwnershipTransferred",
      "type": "event"
    },
    {
      "anonymous": false,
      "inputs": [
        {
          "indexed": true,
          "internalType": "address",
          "name": "user",
          "type": "address"
        },
        {
          "indexed": false,
          "internalType": "uint256",
          "name": "amount",
          "type": "uint256"
        }
      ],
      "name": "RewardsClaimed",
      "type": "event"
    },
    {
      "anonymous": false,
      "inputs": [
        {
          "indexed": true,
          "internalType": "address",
          "name": "user",
          "type": "address"
        },
        {
          "indexed": false,
          "internalType": "uint256",
          "name": "amount",
          "type": "uint256"
        }
      ],
      "name": "Staked",
      "type": "event"
    },
    {
      "anonymous": false,
      "inputs": [
        {
          "indexed": true,
          "internalType": "address",
          "name": "user",
          "type": "address"
        },
        {
          "indexed": false,
          "internalType": "uint256",
          "name": "amount",
          "type": "uint256"
        }
      ],
      "name": "Unstaked",
      "type": "event"
    },
    {
      "inputs": [],
      "name": "apy",
      "outputs": [
        {
          "internalType": "uint256",
          "name": "",
          "type": "uint256"
        }
      ],
      "stateMutability": "view",
      "type": "function"
    },
    {
      "inputs": [
        {
          "internalType": "address",
          "name": "user",
          "type": "address"
        }
      ],
      "name": "calculatePendingRewards",
      "outputs": [
        {
          "internalType": "uint256",
          "name": "",
          "type": "uint256"
        }
      ],
      "stateMutability": "view",
      "type": "function"
    },
    {
      "inputs": [],
      "name": "claimRewards",
      "outputs": [],
      "stateMutability": "nonpayable",
      "type": "function"
    },
    {
      "inputs": [
        {
          "internalType": "address",
          "name": "user",
          "type": "address"
        }
      ],
      "name": "getStakeInfo",
      "outputs": [
        {
          "components": [
            {
              "internalType": "uint256",
              "name": "amount",
              "type": "uint256"
            },
            {
              "internalType": "uint256",
              "name": "startTime",
              "type": "uint256"
            },
            {
              "internalType": "uint256",
              "name": "lastRewardCalculation",
              "type": "uint256"
            },
            {
              "internalType": "uint256",
              "name": "pendingRewards",
              "type": "uint256"
            }
          ],
          "internalType": "struct Staking.StakeInfo",
          "name": "",
          "type": "tuple"
        }
      ],
      "stateMutability": "view",
      "type": "function"
    },
    {
      "inputs": [
        {
          "internalType": "address",
          "name": "user",
          "type": "address"
        }
      ],
      "name": "getVotingPower",
      "outputs": [
        {
          "internalType": "uint256",
          "name": "",
          "type": "uint256"
        }
      ],
      "stateMutability": "view",
      "type": "function"
    },
    {
      "inputs": [],
      "name": "governanceContract",
      "outputs": [
        {
          "internalType": "address",
          "name": "",
          "type": "address"
        }
      ],
      "stateMutability": "view",
      "type": "function"
    },
    {
      "inputs": [],
      "name": "minimumStakingPeriod",
      "outputs": [
        {
          "internalType": "uint256",
          "name": "",
          "type": "uint256"
        }
      ],
      "stateMutability": "view",
      "type": "function"
    },
    {
      "inputs": [],
      "name": "owner",
      "outputs": [
        {
          "internalType": "address",
          "name": "",
          "type": "address"
        }
      ],
      "stateMutability": "view",
      "type": "function"
    },
    {
      "inputs": [],
      "name": "renounceOwnership",
      "outputs": [],
      "stateMutability": "nonpayable",
      "type": "function"
    },
    {
      "inputs": [],
      "name": "rewardToken",
      "outputs": [
        {
          "internalType": "contract RewardToken",
          "name": "",
          "type": "address"
        }
      ],
      "stateMutability": "view",
      "type": "function"
    },
    {
      "inputs": [
        {
          "internalType": "uint256",
          "name": "amount",
          "type": "uint256"
        }
      ],
      "name": "stake",
      "outputs": [],
      "stateMutability": "nonpayable",
      "type": "function"
    },
    {
      "inputs": [
        {
          "internalType": "address",
          "name": "",
          "type": "address"
        }
      ],
      "name": "stakes",
      "outputs": [
        {
          "internalType": "uint256",
          "name": "amount",
          "type": "uint256"
        },
        {
          "internalType": "uint256",
          "name": "startTime",
          "type": "uint256"
        },
        {
          "internalType": "uint256",
          "name": "lastRewardCalculation",
          "type": "uint256"
        },
        {
          "internalType": "uint256",
          "name": "pendingRewards",
          "type": "uint256"
        }
      ],
      "stateMutability": "view",
      "type": "function"
    },
    {
      "inputs": [],
      "name": "totalStaked",
      "outputs": [
        {
          "internalType": "uint256",
          "name": "",
          "type": "uint256"
        }
      ],
      "stateMutability": "view",
      "type": "function"
    },
    {
      "inputs": [
        {
          "internalType": "address",
          "name": "newOwner",
          "type": "address"
        }
      ],
      "name": "transferOwnership",
      "outputs": [],
      "stateMutability": "nonpayable",
      "type": "function"
    },
    {
      "inputs": [
        {
          "internalType": "uint256",
          "name": "amount",
          "type": "uint256"
        }
      ],
      "name": "unstake",
      "outputs": [],
      "stateMutability": "nonpayable",
      "type": "function"
    },
    {
      "inputs": [
        {
          "internalType": "uint256",
          "name": "_apy",
          "type": "uint256"
        }
      ],
      "name": "updateAPY",
      "outputs": [],
      "stateMutability": "nonpayable",
      "type": "function"
    },
    {
      "inputs": [
        {
          "internalType": "address",
          "name": "_governanceContract",
          "type": "address"
        }
      ],
      "name": "updateGovernanceContract",
      "outputs": [],
      "stateMutability": "nonpayable",
      "type": "function"
    },
    {
      "inputs": [
        {
          "internalType": "uint256",
          "name": "_minimumStakingPeriod",
          "type": "uint256"
        }
      ],
      "name": "updateMinimumStakingPeriod",
      "outputs": [],
      "stateMutability": "nonpayable",
      "type": "function"
    }
  ],
  "bytecode": "0x60806040523480156200001157600080fd5b5060405162001fa538038062001fa58339818101604052810190620000379190620002db565b620000576200004b6200016a60201b60201c565b6200017260201b60201c565b60018081905550600073ffffffffffffffffffffffffffffffffffffffff168473ffffffffffffffffffffffffffffffffffffffff1603620000d0576040517f08c379a0000000000000000000000000000000000000000000000000000000008152600401620000c790620003d4565b60405180910390fd5b83600260006101000a81548173ffffffffffffffffffffffffffffffffffffffff021916908373ffffffffffffffffffffffffffffffffffffffff16021790555082600360006101000a81548173ffffffffffffffffffffffffffffffffffffffff021916908373ffffffffffffffffffffffffffffffffffffffff160217905550816004819055508060058190555050505050620003f6565b600033905090565b60008060009054906101000a900473ffffffffffffffffffffffffffffffffffffffff169050816000806101000a81548173ffffffffffffffffffffffffffffffffffffffff021916908373ffffffffffffffffffffffffffffffffffffffff1602179055508173ffffffffffffffffffffffffffffffffffffffff168173ffffffffffffffffffffffffffffffffffffffff167f8be0079c531659141344cd1fd0a4f28419497f9722a3daafe3b4186f6b6457e060405160405180910390a35050565b600080fd5b600073ffffffffffffffffffffffffffffffffffffffff82169050919050565b600062000268826200023b565b9050919050565b6200027a816200025b565b81146200028657600080fd5b50565b6000815190506200029a816200026f565b92915050565b6000819050919050565b620002b581620002a0565b8114620002c157600080fd5b50565b600081519050620002d581620002aa565b92915050565b60008060008060808587031215620002f857620002f762000236565b5b6000620003088782880162000289565b94505060206200031b8782880162000289565b93505060406200032e87828801620002c4565b92505060606200034187828801620002c4565b91505092959194509250565b600082825260208201905092915050565b7f52657761726420746f6b656e2063616e6e6f74206265207a65726f206164647260008201527f6573730000000000000000000000000000000000000000000000000000000000602082015250565b6000620003bc6023836200034d565b9150620003c9826200035e565b604082019050919050565b60006020820190508181036000830152620003ef81620003ad565b9050919050565b611b9f80620004066000396000f3fe608060405234801561001057600080fd5b50600436106101165760003560e01c8063817b1cd2116100a2578063bb4d443611610071578063bb4d443614610298578063c3453153146102c8578063f2fde38b146102f8578063f7c618c114610314578063fae728cd1461033257610116565b8063817b1cd2146102225780638da5cb5b14610240578063a694fc3a1461025e578063b172b2221461027a57610116565b80633bcfc4b8116100e95780633bcfc4b8146101a45780634b6f3fa7146101c25780636faf60a0146101de578063715018a6146101fa5780637ebed54c1461020457610116565b8063097aad101461011b57806316934fc41461014b5780632e17de781461017e578063372500ab1461019a575b600080fd5b6101356004803603810190610130919061133a565b61034e565b6040516101429190611380565b60405180910390f35b6101656004803603810190610160919061133a565b6104fc565b604051610175949392919061139b565b60405180910390f35b6101986004803603810190610193919061140c565b61052c565b005b6101a261074a565b005b6101ac610915565b6040516101b99190611380565b60405180910390f35b6101dc60048036038101906101d7919061140c565b61091b565b005b6101f860048036038101906101f3919061133a565b610968565b005b610202610a7e565b005b61020c610a92565b6040516102199190611380565b60405180910390f35b61022a610a98565b6040516102379190611380565b60405180910390f35b610248610a9e565b6040516102559190611448565b60405180910390f35b6102786004803603810190610273919061140c565b610ac7565b005b610282610d68565b60405161028f9190611448565b60405180910390f35b6102b260048036038101906102ad919061133a565b610d8e565b6040516102bf9190611380565b60405180910390f35b6102e260048036038101906102dd919061133a565b610dda565b6040516102ef91906114c7565b60405180910390f35b610312600480360381019061030d919061133a565b610e5b565b005b61031c610ede565b6040516103299190611541565b60405180910390f35b61034c6004803603810190610347919061140c565b610f04565b005b600080600660008473ffffffffffffffffffffffffffffffffffffffff1673ffffffffffffffffffffffffffffffffffffffff16815260200190815260200160002060000154036103e357600660008373ffffffffffffffffffffffffffffffffffffffff1673ffffffffffffffffffffffffffffffffffffffff1681526020019081526020016000206003015490506104f7565b6000600660008473ffffffffffffffffffffffffffffffffffffffff1673ffffffffffffffffffffffffffffffffffffffff1681526020019081526020016000206002015442610433919061158b565b9050600064496cebb80082600554600660008873ffffffffffffffffffffffffffffffffffffffff1673ffffffffffffffffffffffffffffffffffffffff1681526020019081526020016000206000015461048e91906115bf565b61049891906115bf565b6104a29190611630565b905080600660008673ffffffffffffffffffffffffffffffffffffffff1673ffffffffffffffffffffffffffffffffffffffff168152602001908152602001600020600301546104f29190611661565b925050505b919050565b60066020528060005260406000206000915090508060000154908060010154908060020154908060030154905084565b610534610f51565b6000600660003373ffffffffffffffffffffffffffffffffffffffff1673ffffffffffffffffffffffffffffffffffffffff168152602001908152602001600020905081816000015410156105be576040517f08c379a00000000000000000000000000000000000000000000000000000000081526004016105b5906116f2565b60405180910390fd5b60045481600101546105d09190611661565b421015610612576040517f08c379a00000000000000000000000000000000000000000000000000000000081526004016106099061175e565b60405180910390fd5b61061b33610fa0565b8181600001600082825461062f919061158b565b925050819055508160076000828254610648919061158b565b92505081905550600260009054906101000a900473ffffffffffffffffffffffffffffffffffffffff1673ffffffffffffffffffffffffffffffffffffffff1663a9059cbb33846040518363ffffffff1660e01b81526004016106ac92919061177e565b6020604051808303816000875af11580156106cb573d6000803e3d6000fd5b505050506040513d601f19601f820116820180604052508101906106ef91906117df565b503373ffffffffffffffffffffffffffffffffffffffff167f0f5bb82176feb1b5e747e28471aa92156a04d9f3ab9f45f28e2d704232b93f75836040516107369190611380565b60405180910390a25061074761115c565b50565b610752610f51565b61075b33610fa0565b6000600660003373ffffffffffffffffffffffffffffffffffffffff1673ffffffffffffffffffffffffffffffffffffffff168152602001908152602001600020600301549050600081116107e5576040517f08c379a00000000000000000000000000000000000000000000000000000000081526004016107dc90611858565b60405180910390fd5b6000600660003373ffffffffffffffffffffffffffffffffffffffff1673ffffffffffffffffffffffffffffffffffffffff16815260200190815260200160002060030181905550600260009054906101000a900473ffffffffffffffffffffffffffffffffffffffff1673ffffffffffffffffffffffffffffffffffffffff166340c10f1933836040518363ffffffff1660e01b815260040161088a92919061177e565b600060405180830381600087803b1580156108a457600080fd5b505af11580156108b8573d6000803e3d6000fd5b505050503373ffffffffffffffffffffffffffffffffffffffff167ffc30cddea38e2bf4d6ea7d3f9ed3b6ad7f176419f4963bd81318067a4aee73fe826040516109029190611380565b60405180910390a25061091361115c565b565b60055481565b610923611165565b7f0f4a42e29dd1e424c9d81486dc802ed320ecc7e24a0fb711c54ecc07e589a36860045482604051610956929190611878565b60405180910390a18060048190555050565b610970611165565b600073ffffffffffffffffffffffffffffffffffffffff168173ffffffffffffffffffffffffffffffffffffffff16036109df576040517f08c379a00000000000000000000000000000000000000000000000000000000081526004016109d690611913565b60405180910390fd5b7f2bb6fa423908148a692d1326edeb12cf0436abf468ce271a4be85c722b327748600360009054906101000a900473ffffffffffffffffffffffffffffffffffffffff1682604051610a32929190611933565b60405180910390a180600360006101000a81548173ffffffffffffffffffffffffffffffffffffffff021916908373ffffffffffffffffffffffffffffffffffffffff16021790555050565b610a86611165565b610a9060006111e3565b565b60045481565b60075481565b60008060009054906101000a900473ffffffffffffffffffffffffffffffffffffffff16905090565b610acf610f51565b60008111610b12576040517f08c379a0000000000000000000000000000000000000000000000000000000008152600401610b09906119a8565b60405180910390fd5b6000600660003373ffffffffffffffffffffffffffffffffffffffff1673ffffffffffffffffffffffffffffffffffffffff168152602001908152602001600020600001541115610b6b57610b6633610fa0565b610bfa565b42600660003373ffffffffffffffffffffffffffffffffffffffff1673ffffffffffffffffffffffffffffffffffffffff1681526020019081526020016000206001018190555042600660003373ffffffffffffffffffffffffffffffffffffffff1673ffffffffffffffffffffffffffffffffffffffff168152602001908152602001600020600201819055505b600260009054906101000a900473ffffffffffffffffffffffffffffffffffffffff1673ffffffffffffffffffffffffffffffffffffffff166323b872dd3330846040518463ffffffff1660e01b8152600401610c59939291906119c8565b6020604051808303816000875af1158015610c78573d6000803e3d6000fd5b505050506040513d601f19601f82011682018060405250810190610c9c91906117df565b5080600660003373ffffffffffffffffffffffffffffffffffffffff1673ffffffffffffffffffffffffffffffffffffffff1681526020019081526020016000206000016000828254610cef9190611661565b925050819055508060076000828254610d089190611661565b925050819055503373ffffffffffffffffffffffffffffffffffffffff167f9e71bc8eea02a63969f509818f2dafb9254532904319f9dbda79b67bd34a5f3d82604051610d559190611380565b60405180910390a2610d6561115c565b50565b600360009054906101000a900473ffffffffffffffffffffffffffffffffffffffff1681565b6000600660008373ffffffffffffffffffffffffffffffffffffffff1673ffffffffffffffffffffffffffffffffffffffff168152602001908152602001600020600001549050919050565b610de26112af565b600660008373ffffffffffffffffffffffffffffffffffffffff1673ffffffffffffffffffffffffffffffffffffffff1681526020019081526020016000206040518060800160405290816000820154815260200160018201548152602001600282015481526020016003820154815250509050919050565b610e63611165565b600073ffffffffffffffffffffffffffffffffffffffff168173ffffffffffffffffffffffffffffffffffffffff1603610ed2576040517f08c379a0000000000000000000000000000000000000000000000000000000008152600401610ec990611a71565b60405180910390fd5b610edb816111e3565b50565b600260009054906101000a900473ffffffffffffffffffffffffffffffffffffffff1681565b610f0c611165565b7f787a1fca55641ce34a438271930bbb9401df20db2b4f510d4f252227d85df43d60055482604051610f3f929190611878565b60405180910390a18060058190555050565b600260015403610f96576040517f08c379a0000000000000000000000000000000000000000000000000000000008152600401610f8d90611add565b60405180910390fd5b6002600181905550565b6000600660008373ffffffffffffffffffffffffffffffffffffffff1673ffffffffffffffffffffffffffffffffffffffff168152602001908152602001600020600001540315611159576000600660008373ffffffffffffffffffffffffffffffffffffffff1673ffffffffffffffffffffffffffffffffffffffff168152602001908152602001600020600201544261103b919061158b565b9050600081111561115757600064496cebb80082600554600660008773ffffffffffffffffffffffffffffffffffffffff1673ffffffffffffffffffffffffffffffffffffffff1681526020019081526020016000206000015461109f91906115bf565b6110a991906115bf565b6110b39190611630565b905080600660008573ffffffffffffffffffffffffffffffffffffffff1673ffffffffffffffffffffffffffffffffffffffff16815260200190815260200160002060030160008282546111079190611661565b9250508190555042600660008573ffffffffffffffffffffffffffffffffffffffff1673ffffffffffffffffffffffffffffffffffffffff16815260200190815260200160002060020181905550505b505b50565b60018081905550565b61116d6112a7565b73ffffffffffffffffffffffffffffffffffffffff1661118b610a9e565b73ffffffffffffffffffffffffffffffffffffffff16146111e1576040517f08c379a00000000000000000000000000000000000000000000000000000000081526004016111d890611b49565b60405180910390fd5b565b60008060009054906101000a900473ffffffffffffffffffffffffffffffffffffffff169050816000806101000a81548173ffffffffffffffffffffffffffffffffffffffff021916908373ffffffffffffffffffffffffffffffffffffffff1602179055508173ffffffffffffffffffffffffffffffffffffffff168173ffffffffffffffffffffffffffffffffffffffff167f8be0079c531659141344cd1fd0a4f28419497f9722a3daafe3b4186f6b6457e060405160405180910390a35050565b600033905090565b6040518060800160405280600081526020016000815260200160008152602001600081525090565b600080fd5b600073ffffffffffffffffffffffffffffffffffffffff82169050919050565b6000611307826112dc565b9050919050565b611317816112fc565b811461132257600080fd5b50565b6000813590506113348161130e565b92915050565b6000602082840312156113505761134f6112d7565b5b600061135e84828501611325565b91505092915050565b6000819050919050565b61137a81611367565b82525050565b60006020820190506113956000830184611371565b92915050565b60006080820190506113b06000830187611371565b6113bd6020830186611371565b6113ca6040830185611371565b6113d76060830184611371565b95945050505050565b6113e981611367565b81146113f457600080fd5b50565b600081359050611406816113e0565b92915050565b600060208284031215611422576114216112d7565b5b6000611430848285016113f7565b91505092915050565b611442816112fc565b82525050565b600060208201905061145d6000830184611439565b92915050565b61146c81611367565b82525050565b6080820160008201516114886000850182611463565b50602082015161149b6020850182611463565b5060408201516114ae6040850182611463565b5060608201516114c16060850182611463565b50505050565b60006080820190506114dc6000830184611472565b92915050565b6000819050919050565b60006115076115026114fd846112dc565b6114e2565b6112dc565b9050919050565b6000611519826114ec565b9050919050565b600061152b8261150e565b9050919050565b61153b81611520565b82525050565b60006020820190506115566000830184611532565b92915050565b7f4e487b7100000000000000000000000000000000000000000000000000000000600052601160045260246000fd5b600061159682611367565b91506115a183611367565b92508282039050818111156115b9576115b861155c565b5b92915050565b60006115ca82611367565b91506115d583611367565b92508282026115e381611367565b915082820484148315176115fa576115f961155c565b5b5092915050565b7f4e487b7100000000000000000000000000000000000000000000000000000000600052601260045260246000fd5b600061163b82611367565b915061164683611367565b92508261165657611655611601565b5b828204905092915050565b600061166c82611367565b915061167783611367565b925082820190508082111561168f5761168e61155c565b5b92915050565b600082825260208201905092915050565b7f496e73756666696369656e74207374616b656420616d6f756e74000000000000600082015250565b60006116dc601a83611695565b91506116e7826116a6565b602082019050919050565b6000602082019050818103600083015261170b816116cf565b9050919050565b7f4d696e696d756d207374616b696e6720706572696f64206e6f74206d65740000600082015250565b6000611748601e83611695565b915061175382611712565b602082019050919050565b600060208201905081810360008301526117778161173b565b9050919050565b60006040820190506117936000830185611439565b6117a06020830184611371565b9392505050565b60008115159050919050565b6117bc816117a7565b81146117c757600080fd5b50565b6000815190506117d9816117b3565b92915050565b6000602082840312156117f5576117f46112d7565b5b6000611803848285016117ca565b91505092915050565b7f4e6f207265776172647320746f20636c61696d00000000000000000000000000600082015250565b6000611842601383611695565b915061184d8261180c565b602082019050919050565b6000602082019050818103600083015261187181611835565b9050919050565b600060408201905061188d6000830185611371565b61189a6020830184611371565b9392505050565b7f476f7665726e616e636520636f6e74726163742063616e6e6f74206265207a6560008201527f726f206164647265737300000000000000000000000000000000000000000000602082015250565b60006118fd602a83611695565b9150611908826118a1565b604082019050919050565b6000602082019050818103600083015261192c816118f0565b9050919050565b60006040820190506119486000830185611439565b6119556020830184611439565b9392505050565b7f43616e6e6f74207374616b65203020746f6b656e730000000000000000000000600082015250565b6000611992601583611695565b915061199d8261195c565b602082019050919050565b600060208201905081810360008301526119c181611985565b9050919050565b60006060820190506119dd6000830186611439565b6119ea6020830185611439565b6119f76040830184611371565b949350505050565b7f4f776e61626c653a206e6577206f776e657220697320746865207a65726f206160008201527f6464726573730000000000000000000000000000000000000000000000000000602082015250565b6000611a5b602683611695565b9150611a66826119ff565b604082019050919050565b60006020820190508181036000830152611a8a81611a4e565b9050919050565b7f5265656e7472616e637947756172643a207265656e7472616e742063616c6c00600082015250565b6000611ac7601f83611695565b9150611ad282611a91565b602082019050919050565b60006020820190508181036000830152611af681611aba565b9050919050565b7f4f776e61626c653a2063616c6c6572206973206e6f7420746865206f776e6572600082015250565b6000611b33602083611695565b9150611b3e82611afd565b602082019050919050565b60006020820190508181036000830152611b6281611b26565b905091905056fea2646970667358221220964311d6f34693885df13e3f0ed46437fb7b3e7baabbb2e7862e684db9ec16e164736f6c63430008110033",
  "linkReferences": {},
  "deployedLinkReferences": {}
}