{
  "_format": "hh-sol-artifact-1",
  "contractName": "Governance",
  "sourceName": "contracts/Governance.sol",
  "abi": [
    {
      "inputs": [
        {
          "internalType": "address",
          "name": "_governanceToken",
          "type": "address"
        },
        {
          "internalType": "uint256",
          "name": "_votingPeriod",
          "type": "uint256"
        },
        {
          "internalType": "uint256",
          "name": "_proposalThreshold",
          "type": "uint256"
        }
      ],
      "stateMutability": "nonpayable",
      "type": "constructor"
    },
    {
      "anonymous": false,
      "inputs": [
        {
          "indexed": true,
          "internalType": "uint256",
          "name": "proposalId",
          "type": "uint256"
        },
        {
          "indexed": true,
          "internalType": "address",
          "name": "proposer",
          "type": "address"
        },
        {
          "indexed": false,
          "internalType": "string",
          "name": "description",
          "type": "string"
        }
      ],
      "name": "ProposalCreated",
      "type": "event"
    },
    {
      "anonymous": false,
      "inputs": [
        {
          "indexed": true,
          "internalType": "uint256",
          "name": "proposalId",
          "type": "uint256"
        }
      ],
      "name": "ProposalExecuted",
      "type": "event"
    },
    {
      "anonymous": false,
      "inputs": [
        {
          "indexed": true,
          "internalType": "uint256",
          "name": "proposalId",
          "type": "uint256"
        },
        {
          "indexed": true,
          "internalType": "address",
          "name": "voter",
          "type": "address"
        },
        {
          "indexed": false,
          "internalType": "bool",
          "name": "support",
          "type": "bool"
        },
        {
          "indexed": false,
          "internalType": "uint256",
          "name": "weight",
          "type": "uint256"
        }
      ],
      "name": "VoteCast",
      "type": "event"
    },
    {
      "inputs": [
        {
          "internalType": "uint256",
          "name": "proposalId",
          "type": "uint256"
        },
        {
          "internalType": "bool",
          "name": "support",
          "type": "bool"
        }
      ],
      "name": "castVote",
      "outputs": [],
      "stateMutability": "nonpayable",
      "type": "function"
    },
    {
      "inputs": [
        {
          "internalType": "uint256",
          "name": "proposalId",
          "type": "uint256"
        }
      ],
      "name": "executeProposal",
      "outputs": [],
      "stateMutability": "nonpayable",
      "type": "function"
    },
    {
      "inputs": [
        {
          "internalType": "uint256",
          "name": "proposalId",
          "type": "uint256"
        }
      ],
      "name": "getProposal",
      "outputs": [
        {
          "components": [
            {
              "internalType": "uint256",
              "name": "id",
              "type": "uint256"
            },
            {
              "internalType": "address",
              "name": "proposer",
              "type": "address"
            },
            {
              "internalType": "string",
              "name": "description",
              "type": "string"
            },
            {
              "internalType": "uint256",
              "name": "startBlock",
              "type": "uint256"
            },
            {
              "internalType": "uint256",
              "name": "endBlock",
              "type": "uint256"
            },
            {
              "internalType": "bool",
              "name": "executed",
              "type": "bool"
            },
            {
              "internalType": "uint256",
              "name": "votesFor",
              "type": "uint256"
            },
            {
              "internalType": "uint256",
              "name": "votesAgainst",
              "type": "uint256"
            }
          ],
          "internalType": "struct IGovernance.Proposal",
          "name": "",
          "type": "tuple"
        }
      ],
      "stateMutability": "view",
      "type": "function"
    },
    {
      "inputs": [
        {
          "internalType": "address",
          "name": "account",
          "type": "address"
        }
      ],
      "name": "getVotingPower",
      "outputs": [
        {
          "internalType": "uint256",
          "name": "",
          "type": "uint256"
        }
      ],
      "stateMutability": "view",
      "type": "function"
    },
    {
      "inputs": [],
      "name": "governanceToken",
      "outputs": [
        {
          "internalType": "address",
          "name": "",
          "type": "address"
        }
      ],
      "stateMutability": "view",
      "type": "function"
    },
    {
      "inputs": [],
      "name": "proposalThreshold",
      "outputs": [
        {
          "internalType": "uint256",
          "name": "",
          "type": "uint256"
        }
      ],
      "stateMutability": "view",
      "type": "function"
    },
    {
      "inputs": [
        {
          "internalType": "string",
          "name": "description",
          "type": "string"
        },
        {
          "internalType": "bytes",
          "name": "executionData",
          "type": "bytes"
        },
        {
          "internalType": "address",
          "name": "target",
          "type": "address"
        }
      ],
      "name": "propose",
      "outputs": [
        {
          "internalType": "uint256",
          "name": "proposalId",
          "type": "uint256"
        }
      ],
      "stateMutability": "nonpayable",
      "type": "function"
    },
    {
      "inputs": [
        {
          "internalType": "address",
          "name": "_governanceToken",
          "type": "address"
        }
      ],
      "name": "updateGovernanceToken",
      "outputs": [],
      "stateMutability": "nonpayable",
      "type": "function"
    },
    {
      "inputs": [
        {
          "internalType": "uint256",
          "name": "_proposalThreshold",
          "type": "uint256"
        }
      ],
      "name": "updateProposalThreshold",
      "outputs": [],
      "stateMutability": "nonpayable",
      "type": "function"
    },
    {
      "inputs": [
        {
          "internalType": "uint256",
          "name": "_votingPeriod",
          "type": "uint256"
        }
      ],
      "name": "updateVotingPeriod",
      "outputs": [],
      "stateMutability": "nonpayable",
      "type": "function"
    },
    {
      "inputs": [],
      "name": "votingPeriod",
      "outputs": [
        {
          "internalType": "uint256",
          "name": "",
          "type": "uint256"
        }
      ],
      "stateMutability": "view",
      "type": "function"
    }
  ],
  "bytecode": "0x60806040523480156200001157600080fd5b5060405162002190380380620021908339818101604052810190620000379190620001ec565b600073ffffffffffffffffffffffffffffffffffffffff168373ffffffffffffffffffffffffffffffffffffffff1603620000a9576040517f08c379a0000000000000000000000000000000000000000000000000000000008152600401620000a090620002cf565b60405180910390fd5b6064811115620000f0576040517f08c379a0000000000000000000000000000000000000000000000000000000008152600401620000e79062000367565b60405180910390fd5b826000806101000a81548173ffffffffffffffffffffffffffffffffffffffff021916908373ffffffffffffffffffffffffffffffffffffffff160217905550816002819055508060038190555050505062000389565b600080fd5b600073ffffffffffffffffffffffffffffffffffffffff82169050919050565b600062000179826200014c565b9050919050565b6200018b816200016c565b81146200019757600080fd5b50565b600081519050620001ab8162000180565b92915050565b6000819050919050565b620001c681620001b1565b8114620001d257600080fd5b50565b600081519050620001e681620001bb565b92915050565b60008060006060848603121562000208576200020762000147565b5b600062000218868287016200019a565b93505060206200022b86828701620001d5565b92505060406200023e86828701620001d5565b9150509250925092565b600082825260208201905092915050565b7f476f7665726e616e63653a20746f6b656e2063616e6e6f74206265207a65726f60008201527f2061646472657373000000000000000000000000000000000000000000000000602082015250565b6000620002b760288362000248565b9150620002c48262000259565b604082019050919050565b60006020820190508181036000830152620002ea81620002a8565b9050919050565b7f476f7665726e616e63653a207468726573686f6c64206d75737420626520626560008201527f747765656e20302d313030000000000000000000000000000000000000000000602082015250565b60006200034f602b8362000248565b91506200035c82620002f1565b604082019050919050565b60006020820190508181036000830152620003828162000340565b9050919050565b611df780620003996000396000f3fe608060405234801561001057600080fd5b50600436106100a95760003560e01c806387457a3c1161007157806387457a3c1461013c578063b58131b01461016c578063bb4d44361461018a578063c7f758a8146101ba578063ef00ef43146101ea578063f96dae0a14610206576100a9565b806302a251a3146100ae5780630d61b519146100cc57806315373e3d146100e857806325fd8e761461010457806357ad627914610120575b600080fd5b6100b6610224565b6040516100c39190610dae565b60405180910390f35b6100e660048036038101906100e19190610dff565b61022a565b005b61010260048036038101906100fd9190610e64565b61047c565b005b61011e60048036038101906101199190610f02565b6107f6565b005b61013a60048036038101906101359190610dff565b6108a8565b005b61015660048036038101906101519190610fea565b6108f6565b6040516101639190610dae565b60405180910390f35b610174610b96565b6040516101819190610dae565b60405180910390f35b6101a4600480360381019061019f9190610f02565b610b9c565b6040516101b19190610dae565b60405180910390f35b6101d460048036038101906101cf9190610dff565b610ba7565b6040516101e191906111ec565b60405180910390f35b61020460048036038101906101ff9190610dff565b610d0a565b005b61020e610d14565b60405161021b919061121d565b60405180910390f35b60025481565b6000600460008381526020019081526020016000209050600073ffffffffffffffffffffffffffffffffffffffff168160010160009054906101000a900473ffffffffffffffffffffffffffffffffffffffff1673ffffffffffffffffffffffffffffffffffffffff16036102d4576040517f08c379a00000000000000000000000000000000000000000000000000000000081526004016102cb906112bb565b60405180910390fd5b8060040154431161031a576040517f08c379a000000000000000000000000000000000000000000000000000000000815260040161031190611327565b60405180910390fd5b8060050160009054906101000a900460ff161561036c576040517f08c379a0000000000000000000000000000000000000000000000000000000008152600401610363906113b9565b60405180910390fd5b6000816007015482600601546103829190611408565b9050600081116103c7576040517f08c379a00000000000000000000000000000000000000000000000000000000081526004016103be90611488565b60405180910390fd5b600081606484600601546103db91906114a8565b6103e59190611519565b905060035481101561042c576040517f08c379a0000000000000000000000000000000000000000000000000000000008152600401610423906115bc565b60405180910390fd5b60018360050160006101000a81548160ff021916908315150217905550837f712ae1383f79ac853f8d882153778e0260ef8f03b504e2866e0593e04d2b291f60405160405180910390a250505050565b6000600460008481526020019081526020016000209050600073ffffffffffffffffffffffffffffffffffffffff168160010160009054906101000a900473ffffffffffffffffffffffffffffffffffffffff1673ffffffffffffffffffffffffffffffffffffffff1603610526576040517f08c379a000000000000000000000000000000000000000000000000000000000815260040161051d906112bb565b60405180910390fd5b806003015443101561056d576040517f08c379a000000000000000000000000000000000000000000000000000000000815260040161056490611628565b60405180910390fd5b80600401544311156105b4576040517f08c379a00000000000000000000000000000000000000000000000000000000081526004016105ab90611694565b60405180910390fd5b8060050160009054906101000a900460ff1615610606576040517f08c379a00000000000000000000000000000000000000000000000000000000081526004016105fd906113b9565b60405180910390fd5b6005600084815260200190815260200160002060003373ffffffffffffffffffffffffffffffffffffffff1673ffffffffffffffffffffffffffffffffffffffff16815260200190815260200160002060009054906101000a900460ff16156106a4576040517f08c379a000000000000000000000000000000000000000000000000000000000815260040161069b90611700565b60405180910390fd5b60016005600085815260200190815260200160002060003373ffffffffffffffffffffffffffffffffffffffff1673ffffffffffffffffffffffffffffffffffffffff16815260200190815260200160002060006101000a81548160ff021916908315150217905550600061071833610b9c565b90506000811161075d576040517f08c379a00000000000000000000000000000000000000000000000000000000081526004016107549061176c565b60405180910390fd5b821561078357808260060160008282546107779190611408565b9250508190555061079f565b808260070160008282546107979190611408565b925050819055505b3373ffffffffffffffffffffffffffffffffffffffff16847fcbdf6214089cba887ecbf35a0b6a734589959c9763342c756bb2a80ca2bc9f6e85846040516107e892919061179b565b60405180910390a350505050565b600073ffffffffffffffffffffffffffffffffffffffff168173ffffffffffffffffffffffffffffffffffffffff1603610865576040517f08c379a000000000000000000000000000000000000000000000000000000000815260040161085c90611836565b60405180910390fd5b806000806101000a81548173ffffffffffffffffffffffffffffffffffffffff021916908373ffffffffffffffffffffffffffffffffffffffff16021790555050565b60648111156108ec576040517f08c379a00000000000000000000000000000000000000000000000000000000081526004016108e3906118c8565b60405180910390fd5b8060038190555050565b60008073ffffffffffffffffffffffffffffffffffffffff168273ffffffffffffffffffffffffffffffffffffffff1603610966576040517f08c379a000000000000000000000000000000000000000000000000000000000815260040161095d9061195a565b60405180910390fd5b600086869050116109ac576040517f08c379a00000000000000000000000000000000000000000000000000000000081526004016109a3906119ec565b60405180910390fd5b60004390506000600254826109c19190611408565b9050600160008154809291906109d690611a0c565b9190505592506040518061010001604052808481526020013373ffffffffffffffffffffffffffffffffffffffff16815260200189898080601f016020809104026020016040519081016040528093929190818152602001838380828437600081840152601f19601f820116905080830192505050505050508152602001838152602001828152602001600015158152602001600081526020016000815250600460008581526020019081526020016000206000820151816000015560208201518160010160006101000a81548173ffffffffffffffffffffffffffffffffffffffff021916908373ffffffffffffffffffffffffffffffffffffffff1602179055506040820151816002019081610aee9190611c8f565b50606082015181600301556080820151816004015560a08201518160050160006101000a81548160ff02191690831515021790555060c0820151816006015560e082015181600701559050503373ffffffffffffffffffffffffffffffffffffffff16837f7585f467599d0f008985f231af99293be388626ac16ca59505c2f8f88969cd638a8a604051610b83929190611d9d565b60405180910390a3505095945050505050565b60035481565b600060019050919050565b610baf610d38565b6004600083815260200190815260200160002060405180610100016040529081600082015481526020016001820160009054906101000a900473ffffffffffffffffffffffffffffffffffffffff1673ffffffffffffffffffffffffffffffffffffffff1673ffffffffffffffffffffffffffffffffffffffff168152602001600282018054610c3e90611ab2565b80601f0160208091040260200160405190810160405280929190818152602001828054610c6a90611ab2565b8015610cb75780601f10610c8c57610100808354040283529160200191610cb7565b820191906000526020600020905b815481529060010190602001808311610c9a57829003601f168201915b5050505050815260200160038201548152602001600482015481526020016005820160009054906101000a900460ff16151515158152602001600682015481526020016007820154815250509050919050565b8060028190555050565b60008054906101000a900473ffffffffffffffffffffffffffffffffffffffff1681565b60405180610100016040528060008152602001600073ffffffffffffffffffffffffffffffffffffffff16815260200160608152602001600081526020016000815260200160001515815260200160008152602001600081525090565b6000819050919050565b610da881610d95565b82525050565b6000602082019050610dc36000830184610d9f565b92915050565b600080fd5b600080fd5b610ddc81610d95565b8114610de757600080fd5b50565b600081359050610df981610dd3565b92915050565b600060208284031215610e1557610e14610dc9565b5b6000610e2384828501610dea565b91505092915050565b60008115159050919050565b610e4181610e2c565b8114610e4c57600080fd5b50565b600081359050610e5e81610e38565b92915050565b60008060408385031215610e7b57610e7a610dc9565b5b6000610e8985828601610dea565b9250506020610e9a85828601610e4f565b9150509250929050565b600073ffffffffffffffffffffffffffffffffffffffff82169050919050565b6000610ecf82610ea4565b9050919050565b610edf81610ec4565b8114610eea57600080fd5b50565b600081359050610efc81610ed6565b92915050565b600060208284031215610f1857610f17610dc9565b5b6000610f2684828501610eed565b91505092915050565b600080fd5b600080fd5b600080fd5b60008083601f840112610f5457610f53610f2f565b5b8235905067ffffffffffffffff811115610f7157610f70610f34565b5b602083019150836001820283011115610f8d57610f8c610f39565b5b9250929050565b60008083601f840112610faa57610fa9610f2f565b5b8235905067ffffffffffffffff811115610fc757610fc6610f34565b5b602083019150836001820283011115610fe357610fe2610f39565b5b9250929050565b60008060008060006060868803121561100657611005610dc9565b5b600086013567ffffffffffffffff81111561102457611023610dce565b5b61103088828901610f3e565b9550955050602086013567ffffffffffffffff81111561105357611052610dce565b5b61105f88828901610f94565b9350935050604061107288828901610eed565b9150509295509295909350565b61108881610d95565b82525050565b61109781610ec4565b82525050565b600081519050919050565b600082825260208201905092915050565b60005b838110156110d75780820151818401526020810190506110bc565b60008484015250505050565b6000601f19601f8301169050919050565b60006110ff8261109d565b61110981856110a8565b93506111198185602086016110b9565b611122816110e3565b840191505092915050565b61113681610e2c565b82525050565b600061010083016000830151611155600086018261107f565b506020830151611168602086018261108e565b506040830151848203604086015261118082826110f4565b9150506060830151611195606086018261107f565b5060808301516111a8608086018261107f565b5060a08301516111bb60a086018261112d565b5060c08301516111ce60c086018261107f565b5060e08301516111e160e086018261107f565b508091505092915050565b60006020820190508181036000830152611206818461113c565b905092915050565b61121781610ec4565b82525050565b6000602082019050611232600083018461120e565b92915050565b600082825260208201905092915050565b7f476f7665726e616e63653a2070726f706f73616c20646f6573206e6f7420657860008201527f6973740000000000000000000000000000000000000000000000000000000000602082015250565b60006112a5602383611238565b91506112b082611249565b604082019050919050565b600060208201905081810360008301526112d481611298565b9050919050565b7f476f7665726e616e63653a20766f74696e67206e6f7420656e64656400000000600082015250565b6000611311601c83611238565b915061131c826112db565b602082019050919050565b6000602082019050818103600083015261134081611304565b9050919050565b7f476f7665726e616e63653a2070726f706f73616c20616c72656164792065786560008201527f6375746564000000000000000000000000000000000000000000000000000000602082015250565b60006113a3602583611238565b91506113ae82611347565b604082019050919050565b600060208201905081810360008301526113d281611396565b9050919050565b7f4e487b7100000000000000000000000000000000000000000000000000000000600052601160045260246000fd5b600061141382610d95565b915061141e83610d95565b9250828201905080821115611436576114356113d9565b5b92915050565b7f476f7665726e616e63653a206e6f20766f746573206361737400000000000000600082015250565b6000611472601983611238565b915061147d8261143c565b602082019050919050565b600060208201905081810360008301526114a181611465565b9050919050565b60006114b382610d95565b91506114be83610d95565b92508282026114cc81610d95565b915082820484148315176114e3576114e26113d9565b5b5092915050565b7f4e487b7100000000000000000000000000000000000000000000000000000000600052601260045260246000fd5b600061152482610d95565b915061152f83610d95565b92508261153f5761153e6114ea565b5b828204905092915050565b7f476f7665726e616e63653a2070726f706f73616c20646964206e6f742070617360008201527f7300000000000000000000000000000000000000000000000000000000000000602082015250565b60006115a6602183611238565b91506115b18261154a565b604082019050919050565b600060208201905081810360008301526115d581611599565b9050919050565b7f476f7665726e616e63653a20766f74696e67206e6f7420737461727465640000600082015250565b6000611612601e83611238565b915061161d826115dc565b602082019050919050565b6000602082019050818103600083015261164181611605565b9050919050565b7f476f7665726e616e63653a20766f74696e6720656e6465640000000000000000600082015250565b600061167e601883611238565b915061168982611648565b602082019050919050565b600060208201905081810360008301526116ad81611671565b9050919050565b7f476f7665726e616e63653a20616c726561647920766f74656400000000000000600082015250565b60006116ea601983611238565b91506116f5826116b4565b602082019050919050565b60006020820190508181036000830152611719816116dd565b9050919050565b7f476f7665726e616e63653a206e6f20766f74696e6720706f7765720000000000600082015250565b6000611756601b83611238565b915061176182611720565b602082019050919050565b6000602082019050818103600083015261178581611749565b9050919050565b61179581610e2c565b82525050565b60006040820190506117b0600083018561178c565b6117bd6020830184610d9f565b9392505050565b7f476f7665726e616e63653a20746f6b656e2063616e6e6f74206265207a65726f60008201527f2061646472657373000000000000000000000000000000000000000000000000602082015250565b6000611820602883611238565b915061182b826117c4565b604082019050919050565b6000602082019050818103600083015261184f81611813565b9050919050565b7f476f7665726e616e63653a207468726573686f6c64206d75737420626520626560008201527f747765656e20302d313030000000000000000000000000000000000000000000602082015250565b60006118b2602b83611238565b91506118bd82611856565b604082019050919050565b600060208201905081810360008301526118e1816118a5565b9050919050565b7f476f7665726e616e63653a207461726765742063616e6e6f74206265207a657260008201527f6f20616464726573730000000000000000000000000000000000000000000000602082015250565b6000611944602983611238565b915061194f826118e8565b604082019050919050565b6000602082019050818103600083015261197381611937565b9050919050565b7f476f7665726e616e63653a206465736372697074696f6e2063616e6e6f74206260008201527f6520656d70747900000000000000000000000000000000000000000000000000602082015250565b60006119d6602783611238565b91506119e18261197a565b604082019050919050565b60006020820190508181036000830152611a05816119c9565b9050919050565b6000611a1782610d95565b91507fffffffffffffffffffffffffffffffffffffffffffffffffffffffffffffffff8203611a4957611a486113d9565b5b600182019050919050565b7f4e487b7100000000000000000000000000000000000000000000000000000000600052604160045260246000fd5b7f4e487b7100000000000000000000000000000000000000000000000000000000600052602260045260246000fd5b60006002820490506001821680611aca57607f821691505b602082108103611add57611adc611a83565b5b50919050565b60008190508160005260206000209050919050565b60006020601f8301049050919050565b600082821b905092915050565b600060088302611b457fffffffffffffffffffffffffffffffffffffffffffffffffffffffffffffffff82611b08565b611b4f8683611b08565b95508019841693508086168417925050509392505050565b6000819050919050565b6000611b8c611b87611b8284610d95565b611b67565b610d95565b9050919050565b6000819050919050565b611ba683611b71565b611bba611bb282611b93565b848454611b15565b825550505050565b600090565b611bcf611bc2565b611bda818484611b9d565b505050565b5b81811015611bfe57611bf3600082611bc7565b600181019050611be0565b5050565b601f821115611c4357611c1481611ae3565b611c1d84611af8565b81016020851015611c2c578190505b611c40611c3885611af8565b830182611bdf565b50505b505050565b600082821c905092915050565b6000611c6660001984600802611c48565b1980831691505092915050565b6000611c7f8383611c55565b9150826002028217905092915050565b611c988261109d565b67ffffffffffffffff811115611cb157611cb0611a54565b5b611cbb8254611ab2565b611cc6828285611c02565b600060209050601f831160018114611cf95760008415611ce7578287015190505b611cf18582611c73565b865550611d59565b601f198416611d0786611ae3565b60005b82811015611d2f57848901518255600182019150602085019450602081019050611d0a565b86831015611d4c5784890151611d48601f891682611c55565b8355505b6001600288020188555050505b505050505050565b82818337600083830152505050565b6000611d7c8385611238565b9350611d89838584611d61565b611d92836110e3565b840190509392505050565b60006020820190508181036000830152611db8818486611d70565b9050939250505056fea26469706673582212204ef41aad60e67df3f50b26495fc9ba1b35bf9cead7a57bb310c0d428adbf561964736f6c63430008110033",
  "linkReferences": {},
  "deployedLinkReferences": {}
}